:10000000AAC10000D9C10000D7C10000D5C10000BD
:10001000D3C10000D1C10000CFC10000CDC100009C
:10002000CBC100000C94C1180C94C1180C94C118D9
:10003000C3C10000C1C10000BFC10000BDC10000BC
:10004000BBC10000B9C10000B7C10000B5C10000CC
:10005000B3C10000B1C10000AFC100000C94C119D0
:10006000ABC100000C94BF1D0C94F51DA5C1000090
:10007000A3C10000A1C100009FC100009DC10000FC
:100080009BC1000099C1000097C1000095C100000C
:1000900093C1000091C100008FC100008DC100001C
:1000A0008BC1000089C1000087C1000085C100002C
:1000B00083C1000081C100007FC100007DC100003C
:1000C0007BC1000079C1000077C1000075C100004C
:1000D00073C1000071C100006FC100006DC100005C
:1000E0006BC10000EF1AF41AF91A031B0D1B861BD3
:1000F000171B1F1B271B311B3B1B451B541B5E1B68
:10010000861B681B721B7C1BA71BAA1B991B9D1BB4
:10011000A31BE11BAE1BB21BB81BBC1BC01BC61B29
:10012000CA1BCE1BE11BD41BD81BDC1B005EBCE230
:10013000613FDD83C29C7E20A3FD1F419DC3217FC3
:10014000FCA2401E5F01E3BD3E6082DC237D9FC1B7
:10015000421CFEA0E1BF5D0380DE3C62BEE0025CAB
:10016000DF81633D7C22C09E1D43A1FF4618FAA497
:1001700027799BC584DA3866E5BB5907DB85673983
:10018000BAE406581947A5FB7826C49A653BD98777
:10019000045AB8E6A7F91B45C6987A24F8A6441A6B
:1001A00099C7257B3A6486D85B05E7B98CD2306E57
:1001B000EDB3510F4E10F2AC2F7193CD114FADF343
:1001C000702ECC92D38D6F31B2EC0E50AFF1134D37
:1001D000CE90722C6D33D18F0C52B0EE326C8ED02B
:1001E000530DEFB1F0AE4C1291CF2D73CA94762817
:1001F000ABF517490856B4EA6937D58B5709EBB503
:1002000036688AD495CB2977F4AA4816E9B7550BF6
:1002100088D6346A2B7597C94A14F6A8742AC896EA
:10022000154BA9F7B6E80A54D7896B3500000A0BBD
:1002300002090C0D0E080703040100000000000075
:1002400000000000000000000000000000000000AE
:10025000000000000000000012111000000000006B
:10026000000000000000000000000000000000008E
:1002700000000102102020080810204010204080BB
:10028000020102010804020101020408102040805A
:1002900080402010080402018004020180402010E8
:1002A0000804020108040201010204081020408031
:1002B000010204081020408005050505070508080F
:1002C0000808020202020A0A0808040404040101E0
:1002D00001010101010103030303030303030407F5
:1002E00007070C0C0C0C0C0C0C0C0202020206068C
:1002F0000606060606060B0B0B0B0B0B0B0B000082
:1003000020002300260029002C002F0032000001CD
:100310000000030106010901000022002500280059
:100320002B002E00310034000201000005010801FD
:100330000B0100002100240027002A002D003000BE
:10034000330001010000040107010A014C084E10AE
:100350008312271E5C0811241FBECFEFD1E2DEBF3F
:10036000CDBF00E00CBF13E0A0E0B2E0E2E7F4E4B0
:1003700000E00BBF02C007900D92AA38B107D9F771
:1003800028E0AAE8B3E001C01D92A932B207E1F764
:1003900013E0C4E5D3E000E006C022970109FE01A6
:1003A0000BBF0E94DE20CC34D10780E00807A9F7FC
:1003B0000E946B1E0C94282223CE0F931F93CF9381
:1003C000DF931F92CDB7DEB78C0179830E941A228A
:1003D0007981672FC80101960F90DF91CF911F910E
:1003E0000F910C941A221F93CF93DF93EC010E947C
:1003F0001222182FCE0101960E941222282F30E0DF
:10040000922F8827810F911DDF91CF911F91089521
:10041000CF93DF9380E090E0E6DF60910602709179
:10042000070286179707A1F080E090E0C6DFC1E0E1
:10043000D0E08091090290910A02C817D90744F4CC
:10044000219664E373EFCE01880F991FB6DFF1CFD9
:10045000DF91CF9108950F931F93CF93DF938C017A
:10046000EB0180E090E0BFDF2091060230910702AF
:100470008217930779F480910802882359F0C80104
:100480000196880F991FAFDF843323EF920711F095
:1004900099838883DF91CF911F910F910895909157
:1004A000080291110CC080938A0360938B035093D0
:1004B0008D0340938C038AE594E00C94770A0895A9
:1004C0000F931F93CF93DF938B01EA01AC0160E0A0
:1004D00085E1E5DFA80161E085E1E1DFAE0162E0F1
:1004E00085E1DF91CF911F910F91D9CF20919F048A
:1004F0003091A0042817390771F020919D043091A4
:100500009E042817390739F020919B0430919C04F0
:100510002817390769F44091170250911802609129
:10052000190270911A0280911B0290911C02C8CF8F
:1005300008950F931F93CF93DF93EC0160915804BC
:10054000709159048091090290910A026817790705
:100550004CF540E050E082E0A2DF8E01FE01019008
:100560000020E9F73197EC1BFD0BC8018C1B9D0B9C
:100570008E179F0758F4F80141918F01552747FDC9
:100580005095609158048FE08ADFE8CF209158049D
:1005900030915904C90101969093590480935804ED
:1005A000C90102C08FEF9FEFDF91CF911F910F9193
:1005B000089540E050E060E08AE071CF0F931F9310
:1005C000CF93DF93EC01AB01609158047091590413
:1005D0002091090230910A02621773073CF58CE002
:1005E0005EDF8E01FE0101900020E9F73197EC1BE0
:1005F000FD0BC8018C1B9D0B8E179F0758F4F8014B
:1006000041918F01552747FD5095609158048FE027
:1006100046DFE8CF2091580430915904C901019672
:100620009093590480935804C90102C08FEF9FEF43
:10063000DF91CF911F910F910895609158047091AF
:1006400059042091090230910A02621773077CF461
:10065000AC018BE024DF2091580430915904C9018A
:1006600001969093590480935804C90108958FEF1F
:100670009FEF08950F931F93CF93DF93EC018B01AE
:1006800080915804909159042091090230910A02F6
:1006900082179307A4F5FC01EE0FFF1FE057FC4FF4
:1006A00071836083D8DEF8014081518160915804E4
:1006B00084E0F5DE8E01FE0101900020E9F731971C
:1006C000EC1BFD0BC8018C1B9D0B8E179F0758F46C
:1006D000F80141918F01552747FD509560915804CD
:1006E0008FE0DDDEE8CF2091580430915904C90134
:1006F00001969093590480935804C90102C08FEF6A
:100700009FEFDF91CF911F910F910895CF92DF92CC
:10071000EF92FF920F931F93CF93DF937B016A01B8
:10072000E9014091090250910A0220915804309148
:100730005904241735075CF562E070E03FDF8091D3
:10074000580490915904FC01EE0FFF1FE057FC4F35
:10075000D183C083BE017FDEA801609158048DE083
:100760009EDEA6016091580481E199DEA7016091A7
:10077000580480E194DE2091580430915904C90155
:1007800001969093590480935804C90102C08FEFD9
:100790009FEFDF91CF911F910F91FF90EF90DF902E
:1007A000CF900895FC01EE0FFF1FE057FC4F019022
:1007B000F081E02D40815181682F84E170CEEF926D
:1007C000FF920F931F93CF93DF937C0100E913E017
:1007D000C0E0D0E08091580490915904C817D9071F
:1007E0005CF4F801819191918F018E159F0511F4B0
:1007F000CE01D8DF2196EECFDF91CF911F910F91DF
:10080000FF90EF90089520910F0230911002281769
:10081000390709F064C0109266041092650485E6F9
:1008200094E0CDDF8FEF90E090937804809377048D
:1008300090937A048093790490937C0480937B0452
:1008400090937E0480937D049093800480937F0432
:100850009093820480938104909384048093830412
:10086000909386048093850485E894E0A8DF83E86C
:1008700094E0A5DF81E894E0A2DF8FE794E09FDFBA
:100880008DE794E09CDF8BE794E099DF89E794E0C3
:1008900096DF87E794E093DF81E090E0909368042F
:1008A0008093670490936A048093690490936C0426
:1008B00080936B0490936E0480936D049093700406
:1008C00080936F04909372048093710490937404E6
:1008D00080937304909376048093750467C020918D
:1008E0000D0230910E022817390709F077C01092D7
:1008F00066041092650485E694E061DF1092780446
:100900001092770410927A041092790410927C0469
:1009100010927B0410927E0410927D041092800449
:1009200010927F0410928204109281041092840429
:1009300010928304109286041092850485E894E056
:100940003EDF83E894E03BDF81E894E038DF8FE727
:1009500094E035DF8DE794E032DF8BE794E02FDF22
:1009600089E794E02CDF87E794E029DF10926804A0
:100970001092670410926A041092690410926C0439
:1009800010926B0410926E0410926D041092700419
:1009900010926F04109272041092710410927404F9
:1009A00010927304109276041092750485E794E017
:1009B00006DF83E794E003DF81E794E000DF8FE662
:1009C00094E0FDDE8DE694E0FADE8BE694E0F7DE5F
:1009D00089E694E0F4DE87E694E0F1CE0895CF92C4
:1009E000DF92EF92FF920F931F93CF93DF937C01DF
:1009F0006B018A01E901809158049091590420917A
:100A0000090230910A02821793070CF043C0FC01DF
:100A1000EE0FFF1FE057FC4FD183C083BE011BDDEB
:100A2000488159816091580485E039DDA6016091C3
:100A3000580481E134DDA7016091580480E12FDD85
:100A40007801F80101900020E9F73197E01BF10BE4
:100A5000C701801B910B8E179F0758F4F701419136
:100A60007F01552747FD5095609158048FE017DDB1
:100A7000E8CF8091580490915904019690935904BD
:100A800080935804CE019BDE8091580490915904C4
:100A9000019702C08FEF9FEFDF91CF911F910F91D0
:100AA000FF90EF90DF90CF900895CF92DF92EF927A
:100AB000FF920F931F93CF93DF937C016B018A0109
:100AC000E9018091580490915904209109023091D4
:100AD0000A02821793070CF043C0FC01EE0FFF1FC0
:100AE000E057FC4FD183C083BE01B5DC48815981FA
:100AF0006091580481E0D3DCA6016091580481E143
:100B0000CEDCA7016091580480E1C9DC7801F801CE
:100B100001900020E9F73197E01BF10BC701801B22
:100B2000910B8E179F0758F4F70141917F015527CC
:100B300047FD5095609158048FE0B1DCE8CF80917B
:100B40005804909159040196909359048093580445
:100B5000CE0135DE8091580490915904019702C06E
:100B60008FEF9FEFDF91CF911F910F91FF90EF904B
:100B7000DF90CF9008950F931F9361E070E081E2C2
:100B800092E01CDD25E834E049E252E06FEF70E0CE
:100B900080E090E08ADF23E834E04CE252E06FEF3F
:100BA00070E080E090E081DF21E834E04FE252E045
:100BB0006FEF70E080E090E078DF2FE734E042E311
:100BC00052E06FEF70E080E090E06FDF2DE734E0FF
:100BD00045E352E06FEF70E080E090E066DF2BE7E6
:100BE00034E048E352E06FEF70E080E090E05DDFDA
:100BF00029E734E04BE352E06FEF70E080E090E0F3
:100C000054DF27E734E04EE352E06FEF70E080E01E
:100C100090E04BDF61E070E081E492E0CFDC81E0C6
:100C200090E00BDD2BE132E049E452E06FEF70E041
:100C300080E090E0D4DE9093A00480939F0429E1AB
:100C400032E04FEA52E06FEF70E080E090E0C7DE04
:100C500090939E0480939D0427E132E04BE452E0A0
:100C60006FEF70E080E090E0BADE90939C04809398
:100C70009B0461EA74E08DE492E0FCDC81E090E0AA
:100C8000DCDC83E592E055DC9093100280930F0248
:100C90008BE592E04EDC90930E0280930D0265E7A7
:100CA00074E084E692E0E6DC63E774E08AE692E0D2
:100CB000E1DC61E774E080E792E0DCDC6FE674E0A1
:100CC00086E792E0D7DC6DE674E08CE792E0D2DC58
:100CD0006BE674E082E892E0CDDC69E674E088E8D7
:100CE00092E0C8DC67E674E08EE892E0C3DC61DC89
:100CF00084E992E01EDC909316028093150283EA49
:100D000092E017DC909314028093130261E070E08C
:100D100081EB92E053DC909312028093110281E008
:100D200090E08BDC65E674E083EC92E0A3DC41DCD0
:100D300061E070E088EC92E041DC81E090E07DDCF5
:100D40000AE010E029E934E048E750E060E070E0B4
:100D50008FEC92E0DBDC29E934E04DED52E068E70E
:100D600070E085E090E0A1DE81E090E066DC27E9BC
:100D700034E048E750E060E070E083EE92E0C6DCEB
:100D800027E934E04DED52E068E770E085E090E05F
:100D90008CDE81E090E051DC25E934E048E750E06A
:100DA00060E070E081EF92E0B1DC25E934E04DEDE8
:100DB00052E068E770E085E090E077DE81E090E067
:100DC0003CDC23E934E048E750E060E070E08FEF7E
:100DD00092E09CDC23E934E04DED52E068E770E0FE
:100DE00080E090E062DE81E090E027DCE2DB81E001
:100DF00090E023DC81E090E020DC81E090E01DDCED
:100E000021E934E048E750E060E070E08DE093E0F5
:100E10007DDC21E934E04DED52E068E770E080E0F0
:100E200090E043DE81E090E008DC2FE834E048E722
:100E300050E060E070E08BE193E068DC2FE834E0A4
:100E40004DED52E068E770E080E090E02EDE81E05A
:100E500090E0F3DB2DE834E048E750E060E070E03C
:100E600089E293E053DC2DE834E04DED52E068E791
:100E700070E080E090E019DE81E090E0DEDB2BE8BE
:100E800034E048E750E060E070E087E393E03EDC68
:100E90002BE834E04DED52E068E770E080E090E050
:100EA00004DE81E090E0C9DB84DB81E090E0C5DB1B
:100EB00081E090E0C2DB81E090E0BFDB29E834E034
:100EC00048E750E060E070E085E493E01FDC29E84B
:100ED00034E04DED52E068E770E080E090E0E5DD61
:100EE00081E090E0AADB27E834E048E750E060E0EA
:100EF00070E083E593E00ADC27E834E04DED52E052
:100F000068E770E080E090E0D0DD81E090E095DB84
:100F100040911702509118026091190270911A02C3
:100F200080911B0290911C021F910F91C9CA4091A0
:100F3000090250910A02E0E9F3E020E030E06EE8B7
:100F400073E0241735072CF4619371932F5F3F4FA3
:100F5000F8CF90930702809306020DDE10920802EC
:100F600026E040E052EC61E070E088E897E00E9403
:100F70005F1D28E837E044E06AE873E08AE594E022
:100F8000A5D240E050E060E08FEF89DA40E050E029
:100F900060E08FEF84DA40E050E060E08FEF7FDACE
:100FA00040E050E060E083E07ACA8CEB95E8BFDF78
:100FB00083EA94E08ED481E490E090931C028093C5
:100FC0001B0290931A02809319028EEB90E090938B
:100FD00018028093170210927804109277041092EE
:100FE0007A041092790410927C0410927B0410927F
:100FF0007E0410927D041092800410927F0410925F
:10100000820410928104109284041092830410923E
:1010100086041092850485E894E0D1DB83E894E0AF
:10102000CEDB81E894E0CBDB8FE794E0C8DB8DE793
:1010300094E0C5DB8BE794E0C2DB89E794E0BFDB9B
:1010400087E794E0BCDB61E082E00E94E21B61E0A4
:1010500083E00E94E21B61E084E00E94E21B61E009
:1010600085E00E94E21B61E086E00E94E21B61E0F5
:1010700087E00E94E21B61E088E00E94E21B61E0E1
:1010800089E00E94E21B60E088E10E94E21B10926E
:10109000660410926504089520E040E362E384EC66
:1010A00094E00E94931968E186EB94E036D766EBF2
:1010B00074E083EA94E0F7C284EC94E00C943F1966
:1010C000EF92FF920F931F93CF93DF93FF24FA9435
:1010D000EE24E39488E897E00E94501C892B09F4E1
:1010E00050C08AE594E044D28823A1F380918A031A
:1010F000863071F154F48111EDCF109259041092A1
:101100005804E092640437DDE5CF8E30D1F08431AD
:1011100009F780918C0390918D03E0918B03EE0F82
:10112000FF0BE057FC4F0190F081E02D918380830D
:10113000F0928A0380918B03992787FD9095D6D9E9
:10114000C9CF80918B03992787FD90955CDBC2CF37
:101150005FD900E913E0C0E0D0E08091580490919D
:101160005904C817D9070CF0B5CFD801ED91FD91FE
:101170008D01219660817181CD01805993401DD9E7
:10118000ECCFDF91CF911F910F91FF90EF900895D9
:101190004F925F926F927F928F929F92AF92BF9287
:1011A000CF92DF92EF92FF92CF93DF93CDB7DEB76E
:1011B000A4970FB6F894DEBF0FBECDBF81DF83EAE0
:1011C00094E050D460E083EA94E045D569837A8363
:1011D0008B839C8361E083EA94E03DD52B013C0145
:1011E00062E083EA94E037D54B015C0163E083EA77
:1011F00094E031D56B017C0164E083EA94E02BD567
:101200006D837E838F83988765E083EA94E023D59E
:1012100069877A878B879C8766E083EA94E01BD591
:101220006D877E878F87988B67E083EA94E013D57C
:10123000698B7A8B8B8B9C8B68E083EA94E00BD56F
:101240006D8B7E8B8F8B988F69817A818B819C814E
:1012500024D569837A838B839C83C301B2011DD516
:10126000698F7A8F8B8F9C8FC501B40116D56D8FD6
:101270007E8F8F8F98A3C701B6010FD569A37AA37C
:101280008BA39CA36D817E818F81988506D56D830C
:101290007E838F83988769857A858B859C85FDD42D
:1012A00069877A878B879C876D857E858F859889EE
:1012B000F4D42B013C0169897A898B899C89EDD40E
:1012C0004B015C016D897E898F89988DE6D46B0115
:1012D0007C0169817A818B819C810E946D1F709352
:1012E0009A0460939904698D7A8D8B8D9C8D0E94F0
:1012F0006D1F70939804609397046D8D7E8D8F8D14
:1013000098A10E946D1F709396046093950469A143
:101310007AA18BA19CA10E946D1F7093940460938D
:1013200093046D817E818F8198850E946D1F7093DB
:1013300092046093910469857A858B859C850E94CF
:101340006D1F7093900460938F04C301B2010E94DB
:101350006D1F70938E0460938D04C501B4010E94CB
:101360006D1F70938C0460938B04C701B6010E94BB
:101370006D1F70938A046093890460918504709155
:10138000860482E00E94CC1A6091830470918404E8
:1013900083E00E94CC1A609181047091820484E001
:1013A0000E94CC1A60917F047091800485E00E94B5
:1013B000CC1A60917D0470917E0486E00E94CC1A64
:1013C00060917B0470917C0487E00E94CC1A60914C
:1013D000790470917A0488E00E94CC1A60917704B5
:1013E0007091780489E00E94CC1A89E994E0E7D9E9
:1013F00087E994E0E4D985E994E0E1D983E994E0D0
:10140000DED981E994E0DBD98FE894E0D8D98DE882
:1014100094E0D5D98BE894E0D2D989E894E0CFD98B
:101420008091650490916604892B79F1209199044B
:1014300030919A0480910B0290910C0282179307CD
:1014400024F580918504909186048F3F9105ECF4FA
:101450008FEF90E0909386048093850485E894E074
:10146000A4960FB6F894DEBF0FBECDBFDF91CF912B
:10147000FF90EF90DF90CF90BF90AF909F908F90B4
:101480007F906F905F904F909AC968EC70E080E019
:1014900090E0A4960FB6F894DEBF0FBECDBFDF91EB
:1014A000CF91FF90EF90DF90CF90BF90AF909F9043
:1014B0008F907F906F905F904F900C943A1ADC0160
:1014C000ED91FC910190F081E02D1994CF93DF9381
:1014D000EC017B836A834C8339832883842F90E0DB
:1014E0000E94E2209E838D83DF91CF910895FF9229
:1014F0000F931F93CF93DF93EC01FC8066E070E0C5
:1015000088819981DCDF65E870E088819981D7DF87
:1015100088819981DC01ED91FC910190F081E02DB1
:101520006C81199500E010E02C8130E08881998170
:101530000217130784F4EA81FB81E00FF11F608139
:10154000F626DC01ED91FC910190F081E02D1995DA
:101550000F5F1F4FE9CFDC01ED91FC910190F0810D
:10156000E02D6F2DDF91CF911F910F91FF90199476
:101570000F931F93CF93DF93EC01888581113AC0BD
:1015800088819981DC01ED91FC910480F581E02D49
:10159000199503977CF188819981DC01ED91FC918B
:1015A0000680F781E02D1995A881B981ED91FC9114
:1015B0001197069741F00480F581E02DCD01199532
:1015C00003974CF72CC00680F781E02DCD011995CB
:1015D0008538910579F488819981DC01ED91FC9140
:1015E0000680F781E02D199588879C81891711F075
:1015F000188615C08885882391F088819981DC013F
:10160000ED91FC910480F581E02D19954885EF81DD
:10161000892B39F04E1770F504C018861F8280E0C0
:101620003CC0242F30E0F0E0CF01019728173907A4
:10163000B1F7498780E090E06D817E8159858217FE
:10164000930744F4DB01A80FB91F4C914527498744
:101650000196F2CFE60FF71F319780815813DDCF47
:101660004C8150E08A819B810E94092218861F824A
:1016700081E013C00D811E8181E08E0F8F830E0FDC
:10168000111D88819981DC01ED91FC910680F78123
:10169000E02D1995F8018083B0CFDF91CF911F9194
:1016A0000F9108950895FC0182E59BE0928B818B58
:1016B000768365831482108289E0818381E082834E
:1016C00083830895CF93DF93EB0167E0CE01DAD4F3
:1016D00091E02F81821390E0892FDF91CF910895BF
:1016E000EF92FF920F931F93CF93DF93EC018B0147
:1016F000E42E8D819E81FFD3F12CB8018D819E81D6
:101700002ED4882351F0FE1005C0B801CE01DADFD7
:10171000811104C0F394EF1480F780E0DF91CF9142
:101720001F910F91FF90EF900895EF92FF920F930A
:101730001F93CF93DF931F921F92CDB7DEB77C012B
:101740008A01FC018581968169837A83B2D269819D
:101750007A81F70185819681A5D340E06EEBF70190
:101760008581968143D3F7018581968180D3F801E5
:101770008083F701858196817AD3F8018183F7010F
:101780008581968174D3F8018283F70185819681E2
:101790006ED3F8018383F7018581968168D3F801C0
:1017A0008483F7018581968162D3F8018583F701EF
:1017B000858196815CD3F8018683F70185819681C6
:1017C00056D3F8018783F7018581968150D3F801BC
:1017D0008087F701858196810F900F90DF91CF91DF
:1017E0001F910F91FF90EF9064C2CF93DF93EA01B6
:1017F0009CDF68E0CE0146D491E02885821390E01A
:10180000892FDF91CF910895EF92FF921F93CF938D
:10181000DF931F921F92CDB7DEB77C01FC0185815B
:10182000968169837A8345D269817A81F7018581BE
:10183000968138D340E064EBF70185819681D6D25A
:10184000F70185819681A7D2182FF70185819681AE
:1018500030D281E0111180E00F900F90DF91CF9195
:101860001F91FF90EF900895CF93DF93CDB7DEB730
:1018700029970FB6F894DEBF0FBECDBFFB012081C4
:101880002031E9F0AE014F5F5F4FAFDF8823A9F051
:101890008D818F3349F018F48F3189F007C08F356F
:1018A00051F08F3731F002C08AE00AC0807F803F5C
:1018B00021F48CE005C08BE003C080E001C089E02A
:1018C00029960FB6F894DEBF0FBECDBFDF91CF9142
:1018D0000895EF92FF920F931F93CF93DF93CDB7AD
:1018E000DEB761970FB6F894DEBF0FBECDBF8C0197
:1018F000FC0185819681FFD2F8011482FF24F394C4
:10190000BE01665F7F4FF8018581968128D38823C9
:10191000A1F1BE01665F7F4FC801D4DE882381F349
:10192000F8018081811107C0BE01665F7F4FC80149
:101930006BDF81111FC0AE014F5F5F4FBE01665F5D
:101940007F4FC801F2DEF801E180BE01665F7F4F84
:10195000C8018ADF8E1518F4F801818105C0BE0127
:10196000665F7F4FC80180DFF801818384818F5FCC
:101970008483C6CFF801F082DECF61960FB6F8946B
:10198000DEBF0FBECDBFDF91CF911F910F91FF90B2
:10199000EF900895CF93DF93CDB7DEB729970FB6B9
:1019A000F894DEBF0FBECDBFAE014F5F5F4FBDDE0F
:1019B00081E09981911101C080E029960FB6F894D9
:1019C000DEBF0FBECDBFDF91CF910895CF92DF92E2
:1019D000EF92FF920F931F93CF93DF93EC018B0154
:1019E000452BD9F08B818823C1F08881811115C0E6
:1019F0000E940B1A6B017C0160E070E0CE01CADF2F
:101A000081110BC00E940B1A6C197D098E099F0968
:101A10006E3E72408105910578F3F80180818A302D
:101A200049F08B3061F0893079F46EE570E080E048
:101A300090E00EC06CEB70E080E090E009C067E7DA
:101A400071E080E090E004C06EEE72E080E090E033
:101A5000DF91CF911F910F91FF90EF90DF90CF908A
:101A60000C943A1ACF93DF93EC018D819E8121D1A2
:101A70008D819E813DD2488164E48D819E81B6D165
:101A80008A81882349F0BE016F5F7F4F40E050E0BC
:101A9000CE01DF91CF919ACFDF91CF9108958F92B0
:101AA0009F92AF92BF92CF92DF92EF92FF921F93DD
:101AB000CF93DF93FB01EA0198818981692F70E060
:101AC000782B80818232E9F1A0F5803109F085C060
:101AD0001F8175956795882777FD8095982F0E94BF
:101AE000A01F20E030E040E85EE30E94A01E6B01F2
:101AF0007C01612F70E08E81681B7109882777FD5A
:101B00008095982F0E94A01F4B015C01612F70E00F
:101B100080E090E00E949E1F9B01AC01C501B401D2
:101B20000E94051F9B01AC01C701B6010E94A11EC6
:101B300050C0883231F08B3309F04FC090FD45C062
:101B40001BC08C818F3381F198F48F3109F045C02F
:101B500093E0759567959A95E1F7882777FD8095CD
:101B6000982F0E94A01F20E030E040E05FE32AC0F1
:101B70008F3569F08F3789F5882777FD8095982F05
:101B80000E94A01F20E030E040E85DE31BC0759597
:101B90006795882777FD8095982F0E94A01F20E0E9
:101BA00030E040E05EE30EC07595679575956795EA
:101BB000882777FD8095982F0E94A01F20E030E0B5
:101BC00040E85EE30E942C2004C060E070E080ECFE
:101BD0009FE7562F472F382F292F652F742F832FDC
:101BE000922FDF91CF911F91FF90EF90DF90CF90D8
:101BF000BF90AF909F908F900895EF92FF920F93B8
:101C00001F93CF93DF93CDB7DEB729970FB6F89424
:101C1000DEBF0FBECDBF8C017B01AE014F5F5F4FBA
:101C2000E4DD882339F0AE014F5F5F4FB701C80193
:101C300036DF04C060E070E08EEF92EC29960FB6BC
:101C4000F894DEBF0FBECDBFDF91CF911F910F91F2
:101C5000FF90EF9008950F931F93CF93DF93CDB72D
:101C6000DEB728970FB6F894DEBF0FBECDBF8C014C
:101C7000462FBE016F5F7F4F33DDBE016F5F7F4F29
:101C8000C801BBDF28960FB6F894DEBF0FBECDBFEC
:101C9000DF91CF911F910F91089526E636E646EE2B
:101CA0005FE30E942C2020E030E040E052E40C94FE
:101CB000A11EFF920F931F93CF93DF93FC0100812E
:101CC000C181D281F8948981F02EF0948F2189838B
:101CD00078941DE7115029F182E090E00E945F1A8C
:101CE00088818023B9F3F8948A818F218A8389813E
:101CF000802B8983789480EE91E00E945F1AF8949B
:101D000089818F21898386E490E00E945F1A88810F
:101D1000802311E009F010E078948AE991E00E94B4
:101D20005F1A812FDF91CF911F910F91FF9008953E
:101D30001F93CF93DF93FC011081C181D281912F3A
:101D4000909560FF12C0F8948A8189238A838981E3
:101D5000812B89838AE090E00E945F1A8A81812B1F
:101D60008A83789487E390E011C0F8948A8189236C
:101D70008A838981812B898381E490E00E945F1AA4
:101D80008A81812B8A83789485E090E0DF91CF91DE
:101D90001F910C945F1A0F931F93CF93DF93FC0155
:101DA0001081C181D281F8948981812B89838A81B4
:101DB000012F009580238A8383E090E00E945F1AC0
:101DC0008981802389838AE090E00E945F1AC8811C
:101DD000789485E390E00E945F1A1C2381E009F467
:101DE00080E0DF91CF911F910F910895CF92DF9204
:101DF000EF92FF920F931F93CF93DF931F92CDB774
:101E0000DEB76C01E62E08E010E0FF24F39461E0F9
:101E10009F2D9E2109F460E0C601498389DFFF0CF4
:101E20000150110949810115110589F7411115C0AA
:101E3000F894D6011196ED91FC91129791818C91B5
:101E40008095892381831196ED91FC91129792815F
:101E50008C9180958923828378940F90DF91CF9124
:101E60001F910F91FF90EF90DF90CF900895EF9228
:101E7000FF920F931F93CF93DF938C01C8E0D0E0C4
:101E8000F12CEE24E394C80186DF8111FE28EE0CCC
:101E90002197C9F78F2DDF91CF911F910F91FF905F
:101EA000EF900895CF92DF92FF920F931F93CF93FD
:101EB000DF931F92CDB7DEB78C01F62E40E065E5CB
:101EC000798394DFCF2C7981D72E88E0F82EF60124
:101ED00061916F0140E0C80189DFFA94C1F70F906A
:101EE000DF91CF911F910F91FF90DF90CF900895D8
:101EF00040E06CEC7BCFFC0113861586148627E04E
:101F000030E0DF01A20FB31F13961C92211531059B
:101F100019F021503109F5CF08951F93CF93DF9326
:101F2000EC01162F60E0812F0E94E21B612F70E010
:101F3000FB01EE58FD4FE491E883FB01E854FD4FAF
:101F4000E491F0E0EE0FFF1FE250FD4F8591949178
:101F50009A838983CE01DF91CF911F91CCCFAF922D
:101F6000BF92CF92DF92EF92FF920F931F93CF9386
:101F7000DF931F92CDB7DEB75C01E62ED72EFC01B2
:101F80008585811158C0C50194DE811105C0F50118
:101F90001386158614866AC040E060EFC50126DF0F
:101FA00001E0F12CC12C11E0C501F5DE682FC5015F
:101FB0006983F1DE6981613019F48130B9F432C08E
:101FC0002F2D30E068131BC0F5018385181730F4FE
:101FD000E20FF31F8381802349F402C0181731F008
:101FE00060E0193058F4F501148708C0F501EF0DD1
:101FF000F11D8381802B838361E009C0C12EF5012F
:10200000E20FF31F8381902F909589238383C5016D
:102010008FDE1F5F000F11F4F39401E0F7E0FF156E
:1020200008F0C2CF113438F0F501C386C11018C0D2
:1020300081E0858715C0F50113861586148680E03A
:10204000EE2DFD2D20E030E0D501A20FB31F139639
:102050009C9191932F5F3F4F28303105A9F706C01F
:10206000F5018381882339F381E0EACF0F90DF9176
:10207000CF911F910F91FF90EF90DF90CF90BF9085
:10208000AF900895DC0180E0615038F0ED91E827D1
:10209000F0E0E45DFE4F8491F7CF08951092E804DC
:1020A0001092E9041092EC041092EE0482E090E0A9
:1020B000A0E0B0E08093EF049093F004A093F104CB
:1020C000B093F204109206051092100510920F05BD
:1020D00086E693E090930E0580930D05109212050D
:1020E00008959FB7F89420917E0780917C07213056
:1020F00019F48DBB9FBF08958FBF089520917E076F
:10210000222399F03FB7F89420917E07213059F4AB
:102110002DB320937C074DB320917D072095242378
:102120002DBB3FBF02C030937C078CBD9DBD089581
:102130008EBD00000DB407FEFDCF8EB508958FEF64
:10214000F7CF61E0FC0184810E941B1C80912C056B
:10215000882331F010922C0580917E078111C1CF28
:102160000895CF93DF93EC0180912C05811108C075
:1021700081E080932C0580912D0590912E05BEDF86
:1021800060E08C81DF91CF910C941B1CCF93DF9387
:10219000EC018E81882379F08F8198859C012F5FD7
:1021A0003F4F38872F838230924010F4C8DFF4CF3E
:1021B000CE01C7DF1E82DF91CF9108950F931F9349
:1021C000CF93DF93EB010E940B1A8B01B8DF8F3F97
:1021D00049F00E940B1A601B710B6C177D07B0F35E
:1021E00080E001C081E0DF91CF911F910F910895B0
:1021F000CF92DF92FF920F931F93CF93DF9300D084
:102200001F92CDB7DEB76C01F62E29833A834B833C
:102210005C83BCDFC601A5DF6CE271E0C601CEDFE6
:102220008F2D806485DF08E110E05C814B813A816D
:102230002981DA01C901002E04C0B695A7959795AA
:1022400087950A94D2F729833A834B835C8370DFA6
:102250000850110929813A814B815C81083F8FEF39
:10226000180739F7FF2029F0E8E0FE1621F08FEF7C
:1022700003C085E901C087E85BDF10E060DFF6019D
:10228000828787FF04C01F3F11F01F5FF7CF0F90B9
:102290000F900F900F90DF91CF911F910F91FF90B2
:1022A000DF90CF9008950F931F93CF93DF93EC01AE
:1022B0000E940B1A8B0143DF8A878F3F49F40E94EB
:1022C0000B1A601B710B6D327140A8F38FE003C0D5
:1022D0008E3F31F08DE08D83CE0133DF80E001C091
:1022E00081E0DF91CF911F910F910895CF92DF92FE
:1022F000EF92FF920F931F93CF93DF93EC0169014D
:102300000115110509F45DC0C801820F931F8130CA
:10231000924008F058C08E81882371F0888199819D
:10232000AA81BB81481759076A077B0729F48F8167
:102330009885C816D90600F5488359836A837B833C
:102340008B85833039F039E0440F551F661F771FA6
:102350003A95D1F79A01AB0161E1CE0149DF8823BB
:1023600019F083E08D832FC0CE019DDF882359F1C2
:1023700018861F8281E08E838F8198858C159D053C
:1023800038F4DDDE8F819885019698878F83F4CFAE
:102390006701E00EF11ECE14DF0429F0D0DEF60155
:1023A00081936F01F8CF8F819885800F911F988757
:1023B0008F832985222319F08115924010F0CE01D8
:1023C000E5DE81E003C0CE01BCDE80E0DF91CF918D
:1023D0001F910F91FF90EF90DF90CF900895EF92B3
:1023E000FF920F931F93790100E012E020E030E0AC
:1023F0007DDF1F910F91FF90EF900895CF92DF92B4
:10240000EF92FF920F931F93CF93DF931F921F9230
:10241000CDB7DEB78C01862F49835A8389DE498187
:10242000C42E5A81D52EE12CF12CF60181916F0139
:102430007FDEFFEFEF1AFF0AE11482E0F806A9F74A
:102440008FEF76DE8FEF74DE7ADEF80182878F7190
:10245000853031F081E18583C80173DE80E001C001
:1024600081E00F900F90DF91CF911F910F91FF901E
:10247000EF90DF90CF9008950F931F93CF93DF934A
:10248000EC018901411551056105710511F482E1E5
:102490002DC08B85833039F089E0440F551F661FAE
:1024A000771F8A95D1F79A01AB0168E1CE01A0DED2
:1024B000882311F084E01AC0A8016EEFCE019EDFE0
:1024C0008823A9F068E572E0CE0178DE811102C0B0
:1024D00085E10CC020E030E0A9016DE0CE0188DE8E
:1024E000811103C02CDE882331F084E18D83CE017D
:1024F00028DE80E003C0CE0124DE81E0DF91CF91B1
:102500001F910F91089580E580932D0510922E055F
:102510000895CF93DF93EC019C012A5F3F4F41E088
:1025200050E060E070E08B8D9C8D51D48823A1F049
:102530004F89588D698D7A8D452B462B472B71F429
:102540004E815F81688579854F8B588F698F7A8F2F
:102550008C8180688C8302C080E001C081E0DF91C3
:10256000CF910895CF93DF93EC01462F6E857F8541
:1025700088899989D0D2882341F08A8920E2829F74
:10258000C0011124885C9A4F02C080E090E0DF9186
:10259000CF9108954F925F926F927F92AF92BF92C8
:1025A000CF92DF92EF92FF920F931F93CF93DF931F
:1025B000EC016A017B012D81222309F456C08B892D
:1025C0009C89AD89BE8984179507A607B70708F4CB
:1025D0004CC04DC08A859B85AC85BD85EB8DFC8D3F
:1025E000E585F0E03996AC01BD0141505109610922
:1025F00071090E2E04C076956795579547950A94F4
:10260000D2F797018601015011092109310904C04F
:102610003695279517950795EA95D2F7041715076C
:1026200026073707A8F58F89988DA98DBA8D8E83D7
:102630009F83A887B987280139015E0186E0A80E2B
:10264000B11C411451046104710459F14E815F8140
:102650006885798595018B8D9C8D96D291E0491A7C
:102660005108610871088111ECCF80E01FC0223051
:10267000C1F0C114D104E104F10409F0ABCF1E8212
:102680001F82188619861A861B861C861D860DC019
:10269000892B8A2B8B2B39F2041B150B260B370B3E
:1026A000CACFCA86DB86EC86FD8681E0DF91CF91BA
:1026B0001F910F91FF90EF90DF90CF90BF90AF9060
:1026C0007F906F905F904F9008950F931F93CF93DB
:1026D000DF93EC018D818823B9F18C8187FF2FC0B6
:1026E00061E0CE013FDF8C01009771F18D81823076
:1026F00048F44B895C896D897E89F801448F558F38
:10270000668F778F4F89588D698D7A8DF801538F39
:10271000428F758B648BE0912F05F09130053097D7
:1027200059F0B8016A5E7F4FC80148961995F801C3
:10273000808D918D938B828B8C818F778C83DF91B1
:10274000CF911F910F91AEC180E0DF91CF911F918A
:102750000F9108952F923F924F925F926F927F92C6
:102760008F929F92AF92BF92CF92DF92EF92FF92A1
:102770000F931F93CF93DF9300D01F921F92CDB77B
:10278000DEB78C017B013A01DC0115968C9115971F
:102790008130C1F414968C9181FF14C082FF1AC05D
:1027A000F801438954896589768982859385A48552
:1027B000B58584179507A607B70761F0C801EADE5B
:1027C000811108C081E090E0F8019383828380E06A
:1027D00090E040C163017FC0D8015B968D919C91D0
:1027E0005C97FC01F481F150B501A40129E07695D4
:1027F0006795579547952A95D1F7F423FD8321E0F6
:102800009222FF2309F473C080E092E088199909AD
:1028100056018C159D0508F45C01D8015B96ED917D
:10282000FC915C9716962D903D904D905C90199779
:10283000B2E02B1A310841085108058404C0220C6B
:10284000331C441C551C0A94D2F786859785A089B1
:10285000B189280E391E4A1E5B1EED812E0E311CD9
:10286000411C511CA114F2E0BF0609F085C0809103
:102870001D0290911E02A0911F02B09120028215AC
:102880009305A405B50559F48FEF9FEFDC01809304
:102890001D0290931E02A0931F02B0932002970185
:1028A000B201A1018091360590913705E5DD8823BD
:1028B00009F488CF9EEFF91ACA18DB08F80182855F
:1028C0009385A485B5858A0D9B1DA11DB11D8287A9
:1028D0009387A487B587D8011A968D909D90AD9067
:1028E000BC901D97C114D10409F076CF86C0811425
:1028F000910409F089CF16964D915D916D917C916F
:102900001997411551056105710559F457968D9137
:102910009D910D90BC91A02D0097A105B10531F5B9
:1029200020C09E012F5F3F4F2FD1882309F450CF45
:1029300089819A81AB81BC81F801238D348DF901A5
:102940002789203129F448EF5FEF60E070E004C090
:1029500048EF5FEF6FEF7FE084179507A607B70793
:1029600028F0C801D6DD81114FCF2CCFF801868326
:102970009783A087B18748CF8114910421F5D801AE
:102980001A964D915D916D917C911D9753968D9105
:102990009D910D90BC91A02D481759076A077B07A0
:1029A00090F080D0882309F40DCF20921D02309240
:1029B0001E0240921F0250922002809135058160D4
:1029C0008093350507C041E0C201B101A4D088233E
:1029D00009F4F8CEC401885C9A4FD7019C012A0DF6
:1029E0003B1DFC01E217F30719F04D914193FACF1B
:1029F000E81BF90BEE0EFF1E5FCF53968D919D9154
:102A00000D90BC91A02DF801248188159905AA0587
:102A1000BB0538F4838A948AA58AB68A2068248301
:102A20000CC080912F0590913005892B31F06114F5
:102A3000710419F02068F8012483D80114968C9150
:102A400083FD02C0C30106C0C8013FDE882309F42C
:102A5000B9CEF8CF0F900F900F900F900F90DF919D
:102A6000CF911F910F91FF90EF90DF90CF90BF908B
:102A7000AF909F908F907F906F905F904F903F901E
:102A80002F900895CF93DF931F92CDB7DEB7698360
:102A900041E050E0BE016F5F7F4F5CDE0F90DF9141
:102AA000CF91089580913505882389F140911D02C9
:102AB00050911E0260911F027091200228E335E0C0
:102AC0008091360590913705D7DC882311F140912C
:102AD00031055091320560913305709134054115EF
:102AE00051056105710589F028E335E080913605CF
:102AF00090913705C1DC882361F010923105109266
:102B0000320510923305109234051092350581E09C
:102B1000089580E00895CF92DF92EF92FF92CF93D5
:102B20006B017C01C42F80911D0290911E02A09127
:102B30001F02B09120028C159D05AE05BF05C1F0A6
:102B4000B1DF811102C080E019C028E335E0B70190
:102B5000A601809136059091370541DC882399F3D1
:102B6000C0921D02D0921E02E0921F02F09220023B
:102B7000809135058C2B8093350581E0CF91FF90B6
:102B8000EF90DF90CF9008958F929F92AF92BF9277
:102B9000CF92DF92EF92FF920F931F93CF93DF9329
:102BA0008C016A017B01E901FC0181859285A38585
:102BB000B4850196A11DB11D84179507A607B70717
:102BC00010F480E057C0F8014389548965897689FB
:102BD0008789803129F4BB27AF2D9E2D8D2D09C00B
:102BE000D701C60127E0B695A795979587952A95B1
:102BF000D1F74C015D01840E951EA61EB71EC501BE
:102C0000B40180901D0290901E02A0901F02B0900F
:102C10002002681579058A059B0589F4F8018789E2
:102C2000803191F4DD24EE24FF24F601EE0FFF1F26
:102C3000E85CFA4F80819181A0E0B0E016C040E0EE
:102C40006ADF8111EBCFBDCFE894C7F8DD24EE2415
:102C5000FF24F601EE0FFF1FEE0FFF1FE85CFA4F97
:102C600080819181A281B381BF7088839983AA8377
:102C7000BB8381E0DF91CF911F910F91FF90EF9087
:102C8000DF90CF90BF90AF909F908F9008954F921C
:102C90005F926F927F928F929F92AF92BF92CF92EC
:102CA000DF92EF92FF920F931F93CF93DF93EC018C
:102CB0006A017B0128013901423051056105710526
:102CC00008F473C049855A856B857C854F5F5F4FDB
:102CD0006F4F7F4F4C155D056E057F0508F465C08D
:102CE0008B889C88AD88BE888F89803129F47727AE
:102CF0006F2D5E2D4D2D09C0B701A601E7E0769539
:102D0000679557954795EA95D1F7840E951EA61EAF
:102D1000B71E40911D0250911E0260911F027091DA
:102D2000200284169506A606B70671F48F898031B5
:102D300091F4DD24EE24FF24F601EE0FFF1FE85C82
:102D4000FA4F5182408217C040E0C501B401E3DE72
:102D50008111ECCF2AC0E894C7F8DD24EE24FF24CB
:102D6000F601EE0FFF1FEE0FFF1FE85CFA4F4082E7
:102D7000518262827382809135058160809335052E
:102D80008A89823080F08D819E81AF81B885880DDF
:102D9000991DAA1DBB1D8093310590933205A09308
:102DA0003305B093340581E001C080E0DF91CF911D
:102DB0001F910F91FF90EF90DF90CF90BF90AF9059
:102DC0009F908F907F906F905F904F9008952F927B
:102DD0003F924F925F926F927F929F92AF92BF927B
:102DE000CF92DF92EF92FF920F931F93CF93DF93D7
:102DF000CDB7DEB760970FB6F894DEBF0FBECDBF7C
:102E00005C014D875E876F87788B1901D9014D90E2
:102E10005D906D907C90411451046104710431F017
:102E2000BFEF4B1A5B0A6B0A7B0A10C0FC014080A3
:102E3000518062807380992493940D851E852F851F
:102E40003889013011052105310509F0912CD50192
:102E500019962D913D914D915C911C972F5F3F4F9D
:102E60004F4F5F4F29873A874B875C877301620119
:102E70001D821E821F821886F50181859285A38599
:102E8000B4850D811E812F813885081719072A07FF
:102E90003B0708F054C029853A854B855C852C1585
:102EA0003D054E055F0550F4A2E0CA2ED12CE12C61
:102EB000F12CB2E04B2E512C612C712C9E012F5F16
:102EC0003F4FB701A601C5015FDE8823C1F14981EB
:102ED0005A816B817C81D701C6010196A11DB11D6C
:102EE000452B462B472B19F02C013D010FC0AC019F
:102EF000BD0144195509660977090D851E852F8581
:102F00003889401751076207730779F02D813E8198
:102F10004F8158852F5F3F4F4F4F5F4F2D833E832B
:102F20004F8358876C017D01A7CF0FEF1FEF2FEF65
:102F30003FE0B701A601C501AADE811117C080E0FC
:102F40003FC0D701C6010197A109B1098D839E83B6
:102F5000AF83B88797018601AC01BD01C50197DE3B
:102F6000882369F3CD80DE80EF80F8844C145D0403
:102F70006E047F0430F3D1014D915D916D917C9190
:102F8000411551056105710599F4F10140825182A5
:102F900062827382992099F0FFEF4F1A5F0A6F0ADD
:102FA0007F0AD5014D925D926D927C92139707C076
:102FB00093018201C5016BDE8111E7CFC0CF81E0B3
:102FC00060960FB6F894DEBF0FBECDBFDF91CF91F4
:102FD0001F910F91FF90EF90DF90CF90BF90AF9037
:102FE0009F907F906F905F904F903F902F900895AB
:102FF00020917A0730917B0728173907B9F490910F
:10300000380780913907981789F0E0913807F0E088
:10301000E65CF84F80812091380730E02F5F3F4F0A
:103020002F7333272093380790E008958FEF9FEF99
:1030300008951F93CF93DF93DC015C968D919C9153
:103040005D97009749F481E090E013969C938E93EE
:10305000129780E090E03BC05196ED91FC91529721
:1030600050962C915097322F30951FB75E964C9109
:103070005E9741FB772770F941FD6095F894408198
:10308000772311F0422B01C043234083EC012197A9
:10309000F1F748E0508160FF02C0522B01C053237A
:1030A0005083EC012197F1F76695415099F78081A3
:1030B000772311F0832301C0822B80831FBF5C968E
:1030C0008D919C915D970197F1F781E090E0DF9100
:1030D000CF911F91089520917A0730917B0728178F
:1030E000390781F49091380780913907981751F08A
:1030F000E0913807F0E0E65CF84F8081992787FD82
:10310000909508958FEF9FEF089520917A07309161
:103110007B072817390769F4809139072091380710
:1031200090E0805C9F4F821B910960E470E00C94FA
:10313000A32080E090E0089520917A0730917B07EA
:103140002817390739F48FB7F8941092390710927D
:1031500038078FBF0895E0917A07F0917B07E81751
:10316000F90769F4A389B4899C918589809589239D
:103170008C9310927B0710927A0781E0089580E08B
:1031800008951F920F920FB60F9211240BB60F9253
:103190002F933F934F935F936F937F938F939F935F
:1031A000AF93BF93EF93FF93E0917A07F0917B0782
:1031B000309709F451C0868DA685B785958581FF26
:1031C00004C08C91892329F447C08C91892309F08C
:1031D00043C0A389B4899C918589809589238C9368
:1031E000868997890197F1F7208D318DA685B7855E
:1031F000758558E040E0C9010197F1F7842F90E010
:1032000095958795482F6C91672309F04068515038
:1032100091F7868D81FD40958091390790E0019668
:103220008F73992720913807281749F0A091390703
:10323000B0E0A65CB84F4C938093390703C0868DED
:103240008160868F828D938D0197F1F7A389B48970
:103250008C919589892B8C93FF91EF91BF91AF91C0
:103260009F918F917F916F915F914F913F912F919E
:103270000F900BBE0F900FBE0F901F9018952EE66B
:1032800033E0FC013183208366CF1F93CF93DF931C
:10329000EC01162F6E8D6695617081E06827812F95
:1032A000CAD261E0812F8ED2812F90E0FC01EE58CE
:1032B000FD4FE491E88BFC01E854FD4FE491F0E010
:1032C000EE0FFF1FE85EFC4F859194919A8B898BDE
:1032D000DF91CF911F9108951F93CF93DF93EC015E
:1032E000162F60E0812F6ED28E8D81FD03C061E0CC
:1032F000812FA1D21C87812F90E0FC01EE58FD4F59
:10330000E491ED87FC01E854FD4FE491F0E0EE0F0D
:10331000FF1FE250FD4F859194919F878E87DF912B
:10332000CF911F910895FF920F931F93CF93DF9337
:10333000EC01F62E522F1B821A8208EE13E020E0D9
:1033400030E00C831D832E833F838EE693E09983C8
:1033500088831F8A1E8A198E188E1B8E1A8E1D8EC8
:103360001C8E8E8D8E7F50FB81F98E8F642FCE0147
:103370008CDF6F2DCE01DF91CF911F910F91FF90C8
:10338000ABCF1F920F920FB60F9211242F933F9342
:103390008F939F93AF93BF93809180079091810704
:1033A000A0918207B091830730917F0723E0230F1C
:1033B0002D3720F40196A11DB11D05C026E8230F6D
:1033C0000296A11DB11D20937F07809380079093E3
:1033D0008107A0938207B09383078091840790911F
:1033E0008507A0918607B09187070196A11DB11DA1
:1033F0008093840790938507A0938607B0938707EF
:10340000BF91AF919F918F913F912F910F900FBEE0
:103410000F901F9018952FB7F894609180077091C6
:10342000810780918207909183072FBF08953FB74E
:10343000F8948091840790918507A0918607B091B8
:10344000870726B5A89B05C02F3F19F00196A11D3F
:10345000B11D3FBF6627782F892F9A2F620F711DEC
:10346000811D911D42E0660F771F881F991F4A95A5
:10347000D1F70895CF92DF92EF92FF92CF93DF932F
:103480006B017C01D4DFEB01C114D104E104F10430
:1034900079F055D4CCDF6C1B7D0B683E7340A0F3F4
:1034A00081E0C81AD108E108F108C851DC4FECCF1F
:1034B000DF91CF91FF90EF90DF90CF900895823011
:1034C000910538F0880F991F880F991F059701976C
:1034D000F1F70895789484B5826084BD84B58160E5
:1034E00084BD85B5826085BD85B5816085BDEEE60C
:1034F000F0E0808181608083E1E8F0E010828081EB
:1035000082608083808181608083E0E8F0E0808158
:1035100081608083E1EBF0E0808184608083E0EB78
:10352000F0E0808181608083E1E9F0E08081826069
:103530008083808181608083E0E9F0E08081816028
:103540008083E1EAF0E08081826080838081816015
:103550008083E0EAF0E0808181608083E1E2F1E055
:10356000808182608083808181608083E0E2F1E0FD
:10357000808181608083EAE7F0E0808184608083DD
:103580008081826080838081816080838081806887
:1035900080831092C10008951F93CF93DF93182F5B
:1035A000EB0161E00FD1209711F460E004C0CF3F40
:1035B000D10531F461E0812FDF91CF911F913BC1A3
:1035C000E12FF0E0E45DFD4F449150E0FA013197C6
:1035D000E231F10508F09AC0EE58FF4FE9C584B515
:1035E000806884BDC7BD97C084B5806284BDC8BDF6
:1035F00092C080918000806880938000D093890081
:10360000C093880088C08091800080628093800091
:10361000D0938B00C0938A007EC080918000886028
:1036200080938000D0938D00C0938C0074C08091F3
:10363000B00080688093B000C093B3006CC08091EC
:10364000B00080628093B000C093B40064C08091E9
:103650009000806880939000D0939900C093980068
:103660005AC080919000806280939000D0939B001C
:10367000C0939A0050C08091900088608093900021
:10368000D0939D00C0939C0046C08091A0008068AC
:103690008093A0008091A0008F7B8093A000D093A6
:1036A000A900C093A80037C08091A00080628093D9
:1036B000A000D093AB00C093AA002DC08091A000C1
:1036C00088608093A000D093AD00C093AC0023C06D
:1036D00080912001806880932001D0932901C093BC
:1036E000280119C080912001806280932001D0932D
:1036F0002B01C0932A010FC0809120018860809324
:103700002001D0932D01C0932C0105C0C038D105F4
:103710000CF050CF4ACFDF91CF911F91089590E0E8
:10372000FC013197E231F10508F04BC0EC57FF4F37
:103730003FC5809180008F7703C0809180008F7D8E
:1037400080938000089580918000877FF9CF84B5B1
:103750008F7702C084B58F7D84BD08958091B000BD
:103760008F7703C08091B0008F7D8093B000089563
:10377000809190008F7707C0809190008F7D03C06B
:1037800080919000877F8093900008958091A000A1
:103790008F7707C08091A0008F7D03C08091A0002B
:1037A000877F8093A0000895809120018F7707C0C4
:1037B000809120018F7D03C080912001877F8093BD
:1037C00020010895CF93DF9390E0FC01EE58FD4F68
:1037D0002491FC01E854FD4F8491882349F190E045
:1037E000880F991FFC01EE5CFC4FA591B491885E97
:1037F0009C4FFC01C591D4919FB7611108C0F8940A
:103800008C91209582238C93888182230AC0623018
:1038100051F4F8948C91322F309583238C938881C6
:10382000822B888304C0F8948C91822B8C939FBF49
:10383000DF91CF9108950F931F93CF93DF931F9242
:10384000CDB7DEB7282F30E0F901E45DFD4F84915C
:10385000F901EE58FD4F1491F901E854FD4F049120
:103860000023C1F0882319F0698359DF6981E02FB3
:10387000F0E0EE0FFF1FE85EFC4FA591B4919FB7FB
:10388000F8948C91611103C01095812301C0812BA4
:103890008C939FBF0F90DF91CF911F910F9108954F
:1038A000FC01818D228D90E0805C9F4F821B9109ED
:1038B0008F7399270895FC01918D828D981731F0AF
:1038C000828DE80FF11D858D90E008958FEF9FEFB9
:1038D0000895FC01918D828D981761F0828DDF0132
:1038E000A80FB11D5D968C91928D9F5F9F73928FF3
:1038F00090E008958FEF9FEF08958EE19EE1892B70
:1039000039F080E090E0892B19F098D1811125C021
:1039100080E090E0892B41F080E090E0892B21F05D
:103920000E94000081111CC080E090E0892B41F0D2
:1039300080E090E0892B21F00E940000811113C0EB
:1039400080E090E0892BA1F080E090E0892B81F06D
:103950000E94000081110AC008950E940000D8CF83
:103960000E940000E1CF0E940000EACF0C9400000A
:103970000895FC01848DDF01A80FB11DA35ABF4F2C
:103980002C91848D90E001968F739927848FA6895E
:10399000B7892C93A089B1898C9180648C93938D85
:1039A000848D981306C00288F389E02D80818F7D75
:1039B00080830895CF93DF93EC01888D8823C1F035
:1039C000EA89FB89808185FD05C0A889B9898C9128
:1039D00086FD0EC00FB607FCF5CF808185FFF2CFC4
:1039E000A889B9898C9185FFEDCFCE01C2DFE8CFE0
:1039F000DF91CF910895CF92DF92FF920F931F93A3
:103A0000CF93DF931F92CDB7DEB76C0181E0D60173
:103A100058968C9358975B969C915B975C968C918B
:103A20005C97981307C05096ED91FC915197808157
:103A300085FD2DC0F601038D10E00F5F1F4F0F7342
:103A40001127F02EF601848DF81210C00FB607FC76
:103A5000F9CFD6015096ED91FC915197808185FF69
:103A6000F1CFC601698385DF6981ECCF838DE80FD3
:103A7000F11DE35AFF4F6083D6015B960C935B9771
:103A80005296ED91FC915397808180620CC0D601D3
:103A90005696ED91FC91579760835096ED91FC916D
:103AA000519780818064808381E090E00F90DF9166
:103AB000CF911F910F91FF90DF90CF900895BF920B
:103AC000CF92DF92EF92FF92CF93DF93EC016A01E6
:103AD0007B01B22EE889F98982E08083411581EE6D
:103AE00058076105710599F060E079E08DE390E099
:103AF000A70196013BD3215031094109510956953F
:103B0000479537952795211580E1380790F0E8898A
:103B1000F989108260E874E88EE190E0A7019601CF
:103B200025D32150310941095109569547953795BB
:103B30002795EC85FD853083EE85FF852083188EE3
:103B4000EC89FD89B082EA89FB898081806180836C
:103B5000EA89FB89808188608083EA89FB8980818A
:103B600080688083EA89FB8980818F7D8083DF91F3
:103B7000CF91FF90EF90DF90CF90BF9008951F926C
:103B80000F920FB60F9211240BB60F922F938F93B3
:103B90009F93EF93FF93E0919807F09199078081AD
:103BA000E0919E07F0919F0782FD12C09081809165
:103BB000A1078F5F8F732091A207821751F0E091C8
:103BC000A107F0E0E857F84F958F8093A10701C057
:103BD0008081FF91EF919F918F912F910F900BBE5C
:103BE0000F900FBE0F901F9018951F920F920FB657
:103BF0000F9211240BB60F922F933F934F935F9325
:103C00006F937F938F939F93AF93BF93EF93FF93A4
:103C100088E897E0AEDEFF91EF91BF91AF919F9161
:103C20008F917F916F915F914F913F912F910F9065
:103C30000BBE0F900FBE0F901F90189588E897E06D
:103C40002FDE21E0892B09F420E0822F08951092C5
:103C50008B0710928A0788EE93E0A0E0B0E0809393
:103C60008C0790938D07A0938E07B0938F078EE7F4
:103C700093E0909389078093880785EC90E0909378
:103C800095078093940784EC90E090939707809336
:103C9000960780EC90E0909399078093980781ECC9
:103CA00090E090939B0780939A0782EC90E090932A
:103CB0009D0780939C0786EC90E090939F078093EC
:103CC0009E071092A1071092A2071092A3071092CC
:103CD000A40708950895FEDBFDDF0E94D507CDE718
:103CE000DCE10E94C8082097E1F307DEFACFCF920B
:103CF000DF92EF92FF920F931F93CF93DF936C01AC
:103D00007A01EB01E60EF71E00E010E0CE15DF05AC
:103D100061F06991D601ED91FC910190F081E02D67
:103D2000C6011995080F191FF1CFC801DF91CF9176
:103D30001F910F91FF90EF90DF90CF90089508951D
:103D40005058BB27AA270ED04DC13ED130F043D1E9
:103D500020F031F49F3F11F41EF433C10EF4E095CE
:103D6000E7FB29C1E92F4FD180F3BA176207730728
:103D70008407950718F071F49EF567C10EF4E0957D
:103D80000B2EBA2FA02D0B01B90190010C01CA0115
:103D9000A0011124FF27591B99F0593F50F4503EC0
:103DA00068F11A16F040A22F232F342F4427585FB2
:103DB000F3CF469537952795A795F0405395C9F7CA
:103DC0007EF41F16BA0B620B730B840BBAF0915082
:103DD000A1F0FF0FBB1F661F771F881FC2F70EC021
:103DE000BA0F621F731F841F48F4879577956795F4
:103DF000B795F7959E3F08F0B3CF9395880F08F0DD
:103E00009927EE0F9795879508950CD0EBC0E3D0D6
:103E100040F0DAD030F021F45F3F19F0CCC05111FE
:103E200015C1CFC0F0D098F39923C9F35523B1F34E
:103E3000951B550BBB27AA2762177307840738F019
:103E40009F5F5F4F220F331F441FAA1FA9F333D078
:103E50000E2E3AF0E0E830D091505040E695001C2C
:103E6000CAF729D0FE2F27D0660F771F881FBB1FE8
:103E7000261737074807AB07B0E809F0BB0B802DC2
:103E8000BF01FF2793585F4F2AF09E3F510568F00E
:103E900092C0DCC05F3FECF3983EDCF386957795EB
:103EA0006795B795F7959F5FC9F7880F911D969510
:103EB000879597F90895E1E0660F771F881FBB1F6C
:103EC000621773078407BA0720F0621B730B840B19
:103ED000BA0BEE1F88F7E095089504D06894B111ED
:103EE000B5C0089598D088F09F5790F0B92F9927C2
:103EF000B751A0F0D1F0660F771F881F991F1AF0F5
:103F0000BA95C9F712C0B13081F09FD0B1E00895E1
:103F10009CC0672F782F8827B85F39F0B93FCCF362
:103F2000869577956795B395D9F73EF490958095EA
:103F3000709561957F4F8F4F9F4F0895E89409C00A
:103F400097FB3EF490958095709561957F4F8F4FCC
:103F50009F4F9923A9F0F92F96E9BB279395F695E2
:103F6000879577956795B795F111F8CFFAF4BB0F60
:103F700011F460FF1BC06F5F7F4F8F4F9F4F16C0C4
:103F8000882311F096E911C0772321F09EE8872F4E
:103F9000762F05C0662371F096E8862F70E060E00A
:103FA0002AF09A95660F771F881FDAF7880F969583
:103FB000879597F9089597F99F6780E870E060E02A
:103FC00008959FEF80EC089500240A9416161706B2
:103FD00018060906089500240A94121613061406FA
:103FE00005060895092E0394000C11F4882352F05D
:103FF000BB0F40F4BF2B11F460FF04C06F5F7F4F15
:104000008F4F9F4F089557FD9058440F551F59F0FB
:104010005F3F71F04795880F97FB991F61F09F3FB5
:1040200079F087950895121613061406551FF2CFDE
:104030004695F1DF08C0161617061806991FF1CF2E
:1040400086957105610508940895E894BB27662755
:104050007727CB0197F908950BD0C4CFB5DF28F0AF
:10406000BADF18F0952309F0A6CFABCF1124EECF1D
:10407000CADFA0F3959FD1F3950F50E0551F629FC3
:10408000F001729FBB27F00DB11D639FAA27F00DB1
:10409000B11DAA1F649F6627B00DA11D661F829FD8
:1040A0002227B00DA11D621F739FB00DA11D621FBD
:1040B000839FA00D611D221F749F3327A00D611DDA
:1040C000231F849F600D211D822F762F6A2F1124BC
:1040D0009F5750408AF0E1F088234AF0EE0FFF1F0F
:1040E000BB1F661F771F881F91505040A9F79E3F46
:1040F000510570F060CFAACF5F3FECF3983EDCF340
:10410000869577956795B795F795E7959F5FC1F782
:10411000FE2B880F911D9695879597F90895AA1BF8
:10412000BB1B51E107C0AA1FBB1FA617B70710F0A2
:10413000A61BB70B881F991F5A95A9F780959095D4
:10414000BC01CD01089597FB072E16F4009406D00C
:1041500077FD08D0E4DF07FC05D03EF4909581950B
:104160009F4F0895709561957F4F0895A1E21A2E93
:10417000AA1BBB1BFD010DC0AA1FBB1FEE1FFF1F0B
:10418000A217B307E407F50720F0A21BB30BE40B5B
:10419000F50B661F771F881F991F1A9469F76095A2
:1041A0007095809590959B01AC01BD01CF0108955C
:1041B000EE0FFF1F0590F491E02D19940790F691F2
:1041C000E02D1994CF93DF938230910510F482E0B3
:1041D00090E0E0912708F091280820E030E0A0E08E
:1041E000B0E0309739F14081518148175907B8F054
:1041F0004817590771F482819381109729F013961B
:104200009C938E9312972CC0909328088093270834
:1042100027C02115310531F04217530718F0A901C5
:10422000DB0101C0EF019A01BD01DF010280F381D2
:10423000E02DD7CF21153105F9F0281B390B24309B
:10424000310580F48A819B816115710521F0FB01A4
:104250009383828304C09093280880932708FE01EB
:10426000329644C0FE01E20FF31F819391932250D6
:104270003109398328833AC02091250830912608D6
:10428000232B41F42091020230910302309326083F
:10429000209325082091000230910102211531055B
:1042A00041F42DB73EB74091040250910502241B02
:1042B000350BE0912508F0912608E217F307A0F4EA
:1042C0002E1B3F0B2817390778F0AC014E5F5F4F6C
:1042D0002417350748F04E0F5F1F50932608409370
:1042E00025088193919302C0E0E0F0E0CF01DF91D7
:1042F000CF910895CF93DF93009709F487C0FC0115
:10430000329713821282C0912708D09128082097F3
:1043100081F420813181280F391F809125089091E7
:1043200026088217930779F5F0932608E09325086D
:104330006DC0DE0120E030E0AE17BF0750F41296EA
:104340004D915C9113979D014115510509F1DA01D9
:10435000F3CFB383A28340815181840F951F8A17C5
:104360009B0771F48D919C911197840F951F029674
:104370009183808312968D919C911397938382836E
:104380002115310529F4F0932808E09327083EC051
:10439000D9011396FC93EE9312974D915D91A40F62
:1043A000B51FEA17FB0779F480819181840F951F6F
:1043B0000296D90111969C938E93828193811396D4
:1043C0009C938E931297E0E0F0E08A819B810097A6
:1043D00019F0FE01EC01F9CFCE0102962881398156
:1043E000820F931F2091250830912608281739073E
:1043F00069F4309729F4109228081092270802C017
:1044000013821282D0932608C0932508DF91CF91A2
:104410000895FB01DC0102C001900D924150504013
:10442000D8F70895F999FECF92BD81BDF89A9927E2
:1044300080B50895262FF999FECF1FBA92BD81BD90
:1044400020BD0FB6F894FA9AF99A0FBE0196089516
:1044500013E0C4E5D3E000E005C022970109FE01A6
:104460000BBFACDEC635D10780E00807B1F7F89482
:02447000FFCF7C
:10447200000029088000D2040164004B00060005F8
:1044820000040003000200E10041004100FFFFFFC1
:10449200FF425554544F4E53004E31004E32004E9F
:1044A20033004E340053310053320053330053343F
:1044B2000047554920434F4C4F520042005041554E
:1044C20053450046414E53204F4E0046414E532025
:1044D2004F46460046414E20310046414E203200B2
:1044E20046414E20330046414E20340046414E2084
:1044F200350046414E20360046414E2037004641A7
:104502004E20380053455455502044415441204CCC
:104512004F4700534156452044415441204C4F4798
:10452200005354415455533A204E4F54205345544E
:104532005550004155544F00475241504853005482
:10454200656D706572617475726520310056414CFB
:1045520055450054656D70657261747572652032DF
:104562000054656D70657261747572652033005414
:10457200656D706572617475726520340054656D85
:10458200706572617475726520350054656D706571
:1045920072617475726520360054656D7065726162
:1045A2007475726520370054656D7065726174753B
:1045B200726520380054656D70657261747572653C
:1045C20020390054656D70657261747572652031B1
:1045D2003000000000004215771E0000000019188C
:1045E200771E8518F8176B189C1800000000FB1C3A
:0A45F200771E501C691C5B1CDA1CCC
:00000001FF
