:100000000C940F020C9440020C9440020C94400299
:100010000C9440020C9440020C9440020C94400258
:100020000C9440020C9420110C9420110C9420117B
:100030000C9440020C9440020C9440020C94400238
:100040000C9440020C9440020C9440020C94400228
:100050000C9440020C9440020C9440020C94E01268
:100060000C9440020C94EB160C9421170C94400253
:100070000C9440020C9440020C9440020C944002F8
:100080000C9440020C9440020C9440020C944002E8
:100090000C9440020C9440020C9440020C944002D8
:1000A0000C9440020C9440020C9440020C944002C8
:1000B0000C9440020C9440020C9440020C944002B8
:1000C0000C9440020C9440020C9440020C944002A8
:1000D0000C9440020C9440020C9440020C94400298
:1000E0000C944002141419141E1428143214AB1466
:1000F0003C1444144C14561460146A147914831478
:10010000AB148D149714A114CD14D014BF14C314C0
:10011000C9140715D414D814DE14E214E614EC1430
:10012000F014F4140715FA14FE1402150C94241696
:100130000C9414140C9402150C941E140C94A0101E
:100140000C943C140C94C3140C94FB0A0C94BA1039
:100150000C94C9140C94F0140C94D0140C944B17F8
:100160000C948D140C9497140C94D2100C942D10A4
:100170000C94E6140C9428140C94E2140C94AB1414
:100180000C9482150C94A4150C9456140C947914A8
:100190000C9402160C9419140C9477150C94A11459
:1001A0000C94FE140C9483140C94A8170C94CD1486
:1001B0000C94FA140C9404080C944E100C9407152B
:1001C0000C94D8140C94F4140C94BF140C946A146A
:1001D0000C9460140C9455170C944C140C94DE146D
:1001E0000C9416080C94D4140C94EC140C94321443
:1001F0000C9490150C944414005EBCE2613FDD83C6
:10020000C29C7E20A3FD1F419DC3217FFCA2401EF6
:100210005F01E3BD3E6082DC237D9FC1421CFEA0E6
:10022000E1BF5D0380DE3C62BEE0025CDF81633DD6
:100230007C22C09E1D43A1FF4618FAA427799BC5C6
:1002400084DA3866E5BB5907DB856739BAE40658B6
:100250001947A5FB7826C49A653BD987045AB8E6A6
:10026000A7F91B45C6987A24F8A6441A99C7257B96
:100270003A6486D85B05E7B98CD2306EEDB3510F86
:100280004E10F2AC2F7193CD114FADF3702ECC9276
:10029000D38D6F31B2EC0E50AFF1134DCE90722C66
:1002A0006D33D18F0C52B0EE326C8ED0530DEFB156
:1002B000F0AE4C1291CF2D73CA947628ABF5174946
:1002C0000856B4EA6937D58B5709EBB536688AD436
:1002D00095CB2977F4AA4816E9B7550B88D6346A26
:1002E0002B7597C94A14F6A8742AC896154BA9F716
:1002F000B6E80A54D7896B3500000A0B02090C0DC9
:100300000E080703040100000000000000000000C8
:1003100000000000000000000000000000000000DD
:10032000000000001211100000000000000000009A
:1003300000000000000000000000000000000102BA
:1003400010202008081020401020408002010201E7
:10035000080402010102040810204080804020109F
:1003600008040201800402018040201008040201F8
:100370000804020101020408102040800102040860
:100380001020408005050505070508080808020239
:1003900002020A0A0808040404040101010101011F
:1003A00001010303030303030303040707070C0C02
:1003B0000C0C0C0C0C0C02020202060606060606C9
:1003C00006060B0B0B0B0B0B0B0B00002000230086
:1003D000260029002C002F0032000001000003013C
:1003E0000601090100002200250028002B002E0034
:1003F0003100340002010000050108010B0100007A
:100400002100240027002A002D00300033000101C4
:100410000000040107010A010408551716081124F9
:100420001FBECFEFD1E2DEBFCDBF00E00CBF13E0B7
:10043000A0E0B2E0EAEAF8E300E00BBF02C00790F8
:100440000D92A833B107D9F725E0A8E3B3E001C0C6
:100450001D92A336B207E1F714E0CCE1D4E000E04E
:1004600006C022970109FE010BBF0E94E51AC831A0
:10047000D10780E00807A9F70E9499170C94431C44
:100480000C94000069E172E086E594E00E94E617B2
:100490004AE050E064E070E086E594E00E94921843
:1004A0004AE050E06DE070E086E594E00E9492182A
:1004B0006EE172E086E594E00E94E6174AE050E0C3
:1004C0006CE270E086E594E00E9492184AE050E009
:1004D0006DE070E086E594E00C9492180F931F9302
:1004E000CF93DF931F92CDB7DEB78C0179830E9443
:1004F000351C7981672FC80101960F90DF91CF914C
:100500001F910F910C94351C1F93CF93DF93EC0137
:100510000E942D1C182FCE0101960E942D1C282F01
:1005200030E0922F8827810F911DDF91CF911F918D
:100530000895CF93DF9380E090E00E948402609161
:1005400006027091070286179707B1F080E090E0ED
:100550000E946E02C1E0D0E08091090290910A02EF
:10056000C817D9074CF4219664E373EFCE01880FC6
:10057000991F0E946E02F0CFDF91CF9108950F93E3
:100580001F93CF93DF938C01EB0180E090E00E94FA
:10059000840220910602309107028217930781F4AA
:1005A00080910802882361F0C8010196880F991F85
:1005B0000E948402843323EF920711F09983888389
:1005C000DF91CF911F910F910895909108029111A1
:1005D0000CC0809338036093390350933B034093DE
:1005E0003A0388E094E00C941E0A08950F931F9339
:1005F000CF93DF938B01EA01AC0160E085E10E94BB
:10060000E502A80161E085E10E94E502AE0162E039
:1006100085E1DF91CF911F910F910C94E50220911C
:100620003104309132042817390771F020912F04DA
:10063000309130042817390739F020912D0430917A
:100640002E042817390771F44091130250911402B7
:100650006091150270911602809117029091180214
:100660000C94F60208950F931F93CF93DF93EC0140
:1006700060910604709107048091090290910A022A
:10068000681779075CF540E050E082E00E94E502DF
:100690008E01FE0101900020E9F73197EC1BFD0B64
:1006A000C8018C1B9D0B8E179F0760F4F8014191C8
:1006B0008F01552747FD5095609106048FE00E94F9
:1006C000E502E7CF2091060430910704C9010196A5
:1006D0009093070480930604C90102C08FEF9FEF37
:1006E000DF91CF911F910F91089540E050E060E0BD
:1006F0008AE00C94E5020F931F93CF93DF93EC01F4
:10070000AB016091060470910704209109023091B9
:100710000A02621773074CF58CE00E94E5028E0115
:10072000FE0101900020E9F73197EC1BFD0BC80199
:100730008C1B9D0B8E179F0760F4F80141918F0170
:10074000552747FD5095609106048FE00E94E50211
:10075000E7CF2091060430910704C90101969093D8
:10076000070480930604C90102C08FEF9FEFDF9159
:10077000CF911F910F910895609106047091070425
:100780002091090230910A026217730784F4AC01C8
:100790008BE00E94E5022091060430910704C90114
:1007A00001969093070480930604C90108958FEF82
:1007B0009FEF08950F931F93CF93DF93EC018B016D
:1007C00080910604909107042091090230910A0259
:1007D00082179307BCF5FC01EE0FFF1FE25CFC4F94
:1007E000718360830E94BF02F80140815181609152
:1007F000060484E00E94E5028E01FE0101900020C3
:10080000E9F73197EC1BFD0BC8018C1B9D0B8E1774
:100810009F0760F4F80141918F01552747FD5095DE
:10082000609106048FE00E94E502E7CF2091060464
:1008300030910704C9010196909307048093060440
:10084000C90102C08FEF9FEFDF91CF911F910F91F0
:100850000895CF92DF92EF92FF920F931F93CF9361
:10086000DF937B016A01E9014091090250910A027C
:1008700020910604309107042417350784F562E0BF
:1008800070E00E947B038091060490910704FC01B4
:10089000EE0FFF1FE25CFC4FD183C083BE010E94BC
:1008A000BF02A801609106048DE00E94E502A60146
:1008B0006091060481E10E94E502A70160910604AF
:1008C00080E10E94E5022091060430910704C901ED
:1008D00001969093070480930604C90102C08FEF2C
:1008E0009FEFDF91CF911F910F91FF90EF90DF90DD
:1008F000CF900895FF920F931F93CF93DF93F82E1D
:10090000EB0140E050E0682F87E00E94E5028E0195
:10091000FE0101900020E9F73197EC1BFD0B9801D7
:100920002C1B3D0B2E173F0758F4F80141918F0106
:10093000552747FD50956F2D8FE00E94E502E8CFC7
:10094000DF91CF911F910F91FF900895FC01EE0F61
:10095000FF1FE25CFC4F0190F081E02D408151814E
:10096000682F84E10C94E502EF92FF920F931F939E
:10097000CF93DF937C010EE313E0C0E0D0E08091E1
:10098000060490910704C817D90764F4F80181910F
:1009900091918F018E159F0519F4CE010E94A60436
:1009A0002196EDCFDF91CF911F910F91FF90EF90A6
:1009B000089540E855E260E070E086E594E00E942A
:1009C000271262E272E086E594E00E94E6174AE0B0
:1009D00050E06DE070E086E594E00E94921866E2D7
:1009E00072E086E594E00E94E6176BE272E086E52D
:1009F00094E00E94E61763E372E086E594E00E94CB
:100A0000E6174AE050E06DE070E086E594E00E9471
:100A1000921881E090E0909318048093170487E186
:100A200094E00E94B40468E372E080910D0290911A
:100A30000E020C947A0420911102309112022817B0
:100A4000390711F40C94D90420910F02309110024F
:100A50002817390751F481E090E0909314048093B3
:100A6000130483E194E00C94B404089569E472E003
:100A700086E594E00E94E6176BE272E086E594E07A
:100A80000E94E61763E372E086E594E00E94E617B1
:100A90004AE050E06DE070E086E594E00E94921834
:100AA000109218041092170487E194E00E94B40495
:100AB0006EE472E080910D0290910E020C947A0423
:100AC000CF92DF92EF92FF920F931F93CF93DF931A
:100AD0007C016B018A01E901809106049091070471
:100AE0002091090230910A02821793070CF049C045
:100AF000FC01EE0FFF1FE25CFC4FD183C083BE01FF
:100B00000E94BF02488159816091060485E00E94DD
:100B1000E502A6016091060481E10E94E502A701B9
:100B20006091060480E10E94E5027801F8010190DD
:100B30000020E9F73197E01BF10BC701801B910BF7
:100B40008E179F0760F4F70141917F01552747FDFC
:100B50005095609106048FE00E94E502E7CF8091F6
:100B6000060490910704019690930704809306046D
:100B7000CE010E94B404809106049091070401976D
:100B800002C08FEF9FEFDF91CF911F910F91FF90E8
:100B9000EF90DF90CF900895CF92DF92EF92FF9287
:100BA0000F931F93CF93DF937C016B018A01E901BF
:100BB00080910604909107042091090230910A0265
:100BC000821793070CF049C0FC01EE0FFF1FE25C97
:100BD000FC4FD183C083BE010E94BF02488159816E
:100BE0006091060481E00E94E502A601609106047E
:100BF00081E10E94E502A7016091060480E10E9464
:100C0000E5027801F80101900020E9F73197E01B37
:100C1000F10BC701801B910B8E179F0760F4F70142
:100C200041917F01552747FD5095609106048FE063
:100C30000E94E502E7CF8091060490910704019697
:100C40009093070480930604CE010E94B40480911F
:100C5000060490910704019702C08FEF9FEFDF9188
:100C6000CF911F910F91FF90EF90DF90CF9008955B
:100C70000F931F9361E070E08EE592E00E947B038A
:100C800081E090E00E94BC032FE134E046E652E0B0
:100C90006FEF70E080E090E00E94CC0581E090E092
:100CA0000E94BC032DE134E046E652E06FEF70E0B5
:100CB00080E090E00E94CC0581E090E00E94BC03BF
:100CC0002BE134E046E652E06FEF70E080E090E028
:100CD0000E94CC0581E090E00E94BC0329E134E051
:100CE00046E652E06FEF70E080E090E00E94CC05B5
:100CF00081E090E00E94BC0361E070E080E792E058
:100D00000E947B0381E090E00E94BC0327E132E077
:100D10004EE652E06FEF70E080E090E00E946005E8
:100D2000909332048093310425E132E04DE952E0A2
:100D30006FEF70E080E090E00E94600590933004D7
:100D400080932F0423E132E04AE752E06FEF70E036
:100D500080E090E00E94600590932E0480932D0423
:100D600081E090E00E94BC0361E070E08EE592E0DB
:100D70000E947B0381E090E00E94BC0363E374E087
:100D80008CE792E00E94DA0381E090E00E94BC03CD
:100D900082E892E00E943303909312028093110242
:100DA00081E992E00E9433039093100280930F0236
:100DB00061E070E08FE992E00E947B0390930E0265
:100DC00080930D0281E090E00E94BC0365E174E035
:100DD00081EB92E00E94DA030E94750361E070E00B
:100DE00086EB92E00E947B0381E090E00E94BC03CE
:100DF0000AE010E02BE234E048E750E060E070E009
:100E00008DEB92E00E9429042BE234E04BEC52E09F
:100E100068E770E085E090E00E94CC0581E090E01A
:100E20000E94BC0329E234E048E750E060E070E053
:100E300081ED92E00E94290429E234E04BEC52E07B
:100E400068E770E085E090E00E94CC0581E090E0EA
:100E50000E94BC0327E234E048E750E060E070E025
:100E60008FED92E00E94290427E234E04BEC52E03F
:100E700068E770E085E090E00E94CC0581E090E0BA
:100E80000E94BC030E94750381E090E00E94BC03B5
:100E900081E090E00E94BC0381E090E00E94BC03EE
:100EA00025E234E048E750E060E070E08DEE92E04B
:100EB0000E94290425E234E04BEC52E068E770E040
:100EC00080E090E00E94CC0581E090E00E94BC03AD
:100ED00023E234E048E750E060E070E08BEF92E01E
:100EE0000E94290423E234E04BEC52E068E770E012
:100EF00080E090E00E94CC0581E090E00E94BC037D
:100F000021E234E048E750E060E070E089E093E0FF
:100F10000E94290421E234E04BEC52E068E770E0E3
:100F200080E090E00E94CC0581E090E00E94BC034C
:100F300040911302509114026091150270911602B3
:100F400080911702909118021F910F910C94F60254
:100F50004091090250910A02EEE3F3E020E030E014
:100F60006CE373E0241735072CF4619371932F5FC2
:100F70003F4FF8CF90930702809306020E943806F5
:100F80001092080226E040E052EC61E070E082EC52
:100F900094E00E94891622EC34E044E068E373E0B8
:100FA00088E094E00E940D0A40E050E060E08FEF9E
:100FB0000E94E50240E050E060E08FEF0E94E50211
:100FC00040E050E060E08FEF0E94E50240E050E03A
:100FD00060E083E00C94E5028CEB95E80E94A807A2
:100FE00085E394E00E942B0C61E08DE00E940815DF
:100FF00061E08CE00E94081561E082E00E94081523
:1010000060E086E10C94081520E040E362E386E5A9
:1010100094E00E94F71166E188E494E00E94660F74
:1010200068E474E085E394E00C94FC0A86E594E0BF
:101030000C949E11EF92FF920F931F93CF93DF9327
:10104000FF24FA94EE24E39482EC94E00E94771556
:10105000892B09F456C088E094E00E94610A882335
:1010600099F380913803863089F15CF48111ECCFDB
:101070001092070410920604E09212040E943806AF
:10108000E3CF8E30D9F08431F9F680913A03909114
:101090003B03E0913903EE0FFF0BE25CFC4F019044
:1010A000F081E02D91838083F092380380913903A1
:1010B000992787FD90950E940F03C6CF8091390331
:1010C000992787FD90950E941B05BECF0E9499022B
:1010D0000EE313E0C0E0D0E0809106049091070495
:1010E000C817D9070CF0B0CFD801ED91FD918D0153
:1010F000219660817181CD018E5393400E946E02D2
:10110000EBCFDF91CF911F910F91FF90EF9008955A
:101110004F925F926F927F928F929F92AF92BF9207
:10112000CF92DF92EF92FF92CF93DF93CDB7DEB7EE
:101130002C970FB6F894DEBF0FBECDBF0E941A08E1
:1011400085E394E00E94FD0C60E085E394E00E945A
:10115000FC0D69837A838B839C8361E085E394E053
:101160000E94FC0D2B013C0162E085E394E00E94AB
:10117000FC0D4B015C0163E085E394E00E94FC0DF3
:101180006B017C0164E085E394E00E94FC0D6D83BB
:101190007E838F83988765E085E394E00E94FC0D51
:1011A00069877A878B879C8769817A818B819C810B
:1011B0000E94200E69837A838B839C83C301B201D2
:1011C0000E94200E2B013C01C501B4010E94200E9B
:1011D0004B015C01C701B6010E94200E6B017C012E
:1011E0006D817E818F8198850E94200E6D837E8324
:1011F0008F83988769857A858B859C850E94200ED0
:1012000069877A878B879C8769817A818B819C81AA
:101210000E94681970932C0460932B04C301B201DF
:101220000E94681970932A0460932904C501B401CF
:101230000E9468197093280460932704C701B601BF
:101240000E94681970932604609325046D817E8145
:101250008F8198850E9468197093240460932304F9
:1012600069857A858B859C850E9468197093220414
:101270006093210460911F047091200482E00E9419
:10128000EE1360911D0470911E0483E00E94EE1322
:1012900060911B0470911C0484E00E94EE13609125
:1012A000190470911A0485E00E94EE138BE294E019
:1012B0000E94B40489E294E00E94B40487E294E0BE
:1012C0000E94B40485E294E00E94B40483E294E0B6
:1012D0000E94B40481E294E00E94B4048FE194E09F
:1012E0000E94B4048DE194E00E94B4048BE194E088
:1012F0000E94B40489E194E00E94B4048091150432
:1013000090911604892B81F120912B0430912C04AB
:1013100080910B0290910C02821793072CF580911B
:101320001F04909120048F3F9105F4F48FEF90E01B
:101330009093200480931F048FE194E02C960FB6C5
:10134000F894DEBF0FBECDBFDF91CF91FF90EF903D
:10135000DF90CF90BF90AF909F908F907F906F90D5
:101360005F904F900C94B4048091130490911404F6
:10137000892BB1F02C960FB6F894DEBF0FBECDBF0F
:10138000DF91CF91FF90EF90DF90CF90BF90AF9023
:101390009F908F907F906F905F904F900C94360548
:1013A0008091170490911804892BB1F02C960FB6F8
:1013B000F894DEBF0FBECDBFDF91CF91FF90EF90CD
:1013C000DF90CF90BF90AF909F908F907F906F9065
:1013D0005F904F900C94420268EC70E080E090E0E7
:1013E0002C960FB6F894DEBF0FBECDBFDF91CF9124
:1013F000FF90EF90DF90CF90BF90AF909F908F9035
:101400007F906F905F904F900C945913DC01ED9199
:10141000FC910190F081E02D1994CF93DF93EC01C2
:101420007B836A834C8339832883842F90E00E94D6
:10143000FD1A9E838D83DF91CF910895FF920F93C4
:101440001F93CF93DF93EC01FC8066E070E088810E
:1014500099810E94060A65E870E0888199810E945E
:10146000060A88819981DC01ED91FC910190F0815F
:10147000E02D6C81199500E010E02C8130E088812E
:1014800099810217130784F4EA81FB81E00FF11FB1
:101490006081F626DC01ED91FC910190F081E02D58
:1014A00019950F5F1F4FE9CFDC01ED91FC91019081
:1014B000F081E02D6F2DDF91CF911F910F91FF9063
:1014C00019940F931F93CF93DF93EC0188858111BB
:1014D0003AC088819981DC01ED91FC910480F5810D
:1014E000E02D199503977CF188819981DC01ED91BC
:1014F000FC910680F781E02D1995A881B981ED91C5
:10150000FC911197069741F00480F581E02DCD0103
:10151000199503974CF72CC00680F781E02DCD017B
:1015200019958538910579F488819981DC01ED91CF
:10153000FC910680F781E02D199588879C81891799
:1015400011F0188615C08885882391F088819981CB
:10155000DC01ED91FC910480F581E02D1995488521
:10156000EF81892B39F04E1770F504C018861F8261
:1015700080E03CC0242F30E0F0E0CF010197281735
:101580003907B1F7498780E090E06D817E81598508
:101590008217930744F4DB01A80FB91F4C9145272C
:1015A00049870196F2CFE60FF71F319780815813D4
:1015B000DDCF4C8150E08A819B810E94241C1886DB
:1015C0001F8281E013C00D811E8181E08E0F8F8309
:1015D0000E0F111D88819981DC01ED91FC9106802F
:1015E000F781E02D1995F8018083B0CFDF91CF917D
:1015F0001F910F9108950895FC018BEF9AE0928B53
:10160000818B768365831482108289E0818381E0F7
:10161000828383830895CF93DF93EB0167E0CE014C
:101620000E94211091E02F81821390E0892FDF9199
:10163000CF910895EF92FF920F931F93CF93DF9373
:10164000EC018B01E42E8D819E810E94540FF12CC0
:10165000B8018D819E810E94890F882359F0FE1068
:1016600006C0B801CE010E940B0B811104C0F39497
:10167000EF1470F780E0DF91CF911F910F91FF90F1
:10168000EF900895EF92FF920F931F93CF93DF9304
:101690001F921F92CDB7DEB77C018A01FC018581C4
:1016A000968169837A830E942D0E69817A81F70180
:1016B000858196810E94280F40E06EEBF7018581BD
:1016C00096810E94CA0EF701858196810E940C0FB7
:1016D000F8018083F701858196810E940C0FF80143
:1016E0008183F701858196810E940C0FF801828326
:1016F000F701858196810E940C0FF8018383F70121
:10170000858196810E940C0FF8018483F701858101
:1017100096810E940C0FF8018583F70185819681DF
:101720000E940C0FF8018683F701858196810E9443
:101730000C0FF8018783F701858196810E940C0FB9
:10174000F8018087F701858196810F900F90DF91D6
:10175000CF911F910F91FF90EF900C942D0ECF938E
:10176000DF93EA010E94420B68E0CE010E94211043
:1017700091E02885821390E0892FDF91CF91089521
:10178000EF92FF921F93CF93DF931F921F92CDB7DB
:10179000DEB77C01FC018581968169837A830E9492
:1017A0002D0E69817A81F701858196810E94280F2B
:1017B00040E064EBF701858196810E94CA0EF70133
:1017C000858196810E949F0E182FF7018581968151
:1017D0000E942D0E81E0111180E00F900F90DF919B
:1017E000CF911F91FF90EF900895CF93DF93CDB7E6
:1017F000DEB729970FB6F894DEBF0FBECDBFFB0151
:1018000020812031F1F0AE014F5F5F4F0E94AF0B9E
:101810008823A9F08D818F3349F018F48F3189F036
:1018200007C08F3551F08F3731F002C08AE00AC00F
:10183000807F803F21F48CE005C08BE003C080E016
:1018400001C089E029960FB6F894DEBF0FBECDBF68
:10185000DF91CF910895EF92FF920F931F93CF9353
:10186000DF93CDB7DEB761970FB6F894DEBF0FBE3A
:10187000CDBF8C01FC01858196810E94540FF80137
:101880001482FF24F394BE01665F7F4FF8018581C7
:1018900096810E94890F8823C9F1BE01665F7F4F40
:1018A000C8010E940B0B882371F3F801808181111C
:1018B00008C0BE01665F7F4FC8010E94C00B811146
:1018C00022C0AE014F5F5F4FBE01665F7F4FC80110
:1018D0000E94420BF801E180BE01665F7F4FC801A4
:1018E0000E94F50B8E1518F4F801818106C0BE0127
:1018F000665F7F4FC8010E94F50BF80181838481E8
:101900008F5F8483C0CFF801F082DBCF61960FB682
:10191000F894DEBF0FBECDBFDF91CF911F910F9125
:10192000FF90EF900895CF93DF93CDB7DEB729975F
:101930000FB6F894DEBF0FBECDBFAE014F5F5F4F55
:101940000E94420B81E09981911101C080E02996AB
:101950000FB6F894DEBF0FBECDBFDF91CF910895D3
:10196000CF92DF92EF92FF920F931F93CF93DF936B
:10197000EC018B01452BE1F08B818823C9F0888134
:10198000811116C00E942A136B017C0160E070E097
:10199000CE010E94930C81110BC00E942A136C1976
:1019A0007D098E099F096E3E72408105910570F395
:1019B000F80180818A3049F08B3061F0893079F408
:1019C0006EE570E080E090E00EC06CEB70E080E0CF
:1019D00090E009C067E771E080E090E004C06EEE3F
:1019E00072E080E090E0DF91CF911F910F91FF9026
:1019F000EF90DF90CF900C945913CF93DF93EC01CD
:101A00008D819E810E942D0E8D819E810E94500F9E
:101A1000488164E48D819E810E94CA0E8A81882358
:101A200051F0BE016F5F7F4F40E050E0CE01DF918B
:101A3000CF910C94B00CDF91CF9108958F929F922B
:101A4000AF92BF92CF92DF92EF92FF921F93CF930C
:101A5000DF93FB01EA0198818981692F70E0782B7F
:101A600080818232E9F1A0F5803109F085C01F81C3
:101A700075956795882777FD8095982F0E949B190B
:101A800020E030E040E85EE30E949B186B017C019F
:101A9000612F70E08E81681B7109882777FD809522
:101AA000982F0E949B194B015C01612F70E080E030
:101AB00090E00E9499199B01AC01C501B4010E94FC
:101AC00000199B01AC01C701B6010E949C1850C0CF
:101AD000883231F08B3309F04FC090FD45C01BC0F8
:101AE0008C818F3381F198F48F3109F045C093E0F8
:101AF000759567959A95E1F7882777FD8095982FDA
:101B00000E949B1920E030E040E05FE32AC08F355F
:101B100069F08F3789F5882777FD8095982F0E9487
:101B20009B1920E030E040E85DE31BC075956795A8
:101B3000882777FD8095982F0E949B1920E030E040
:101B400040E05EE30EC075956795759567958827AB
:101B500077FD8095982F0E949B1920E030E040E8A7
:101B60005EE30E94271A04C060E070E080EC9FE70B
:101B7000562F472F382F292F652F742F832F922F01
:101B8000DF91CF911F91FF90EF90DF90CF90BF90AA
:101B9000AF909F908F900895EF92FF920F931F93B5
:101BA000CF93DF93CDB7DEB729970FB6F894DEBF9A
:101BB0000FBECDBF8C017B01AE014F5F5F4F0E9416
:101BC000AF0B882341F0AE014F5F5F4FB701C801F3
:101BD0000E941E0D04C060E070E08EEF92EC29962A
:101BE0000FB6F894DEBF0FBECDBFDF91CF911F912E
:101BF0000F91FF90EF9008950F931F93CF93DF9372
:101C0000CDB7DEB728970FB6F894DEBF0FBECDBFB5
:101C10008C01462FBE016F5F7F4F0E941A0BBE01E1
:101C20006F5F7F4FC8010E94CC0D28960FB6F894C5
:101C3000DEBF0FBECDBFDF91CF911F910F910895F1
:101C400026E636E646EE5FE30E94271A20E030E003
:101C500040E052E40E949C180895FF920F931F9356
:101C6000CF93DF93FC010081C181D281F8948981F7
:101C7000F02EF0948F21898378941DE7115029F17B
:101C800082E090E00E94811388818023B9F3F89468
:101C90008A818F218A838981802B8983789480EE41
:101CA00091E00E948113F89489818F21898386E4D1
:101CB00090E00E9481138881802311E009F010E0F8
:101CC00078948AE991E00E948113812FDF91CF916E
:101CD0001F910F91FF9008951F93CF93DF93FC0105
:101CE0001081C181D281912F909560FF12C0F8942C
:101CF0008A8189238A838981812B89838AE090E084
:101D00000E9481138A81812B8A83789487E390E0F3
:101D100011C0F8948A8189238A838981812B8983E0
:101D200081E490E00E9481138A81812B8A837894D8
:101D300085E090E0DF91CF911F910C9481130F9378
:101D40001F93CF93DF93FC011081C181D281F8945E
:101D50008981812B89838A81012F009580238A8341
:101D600083E090E00E9481138981802389838AE047
:101D700090E00E948113C881789485E390E00E94EE
:101D800081131C2381E009F480E0DF91CF911F9142
:101D90000F910895CF92DF92EF92FF920F931F93CE
:101DA000CF93DF931F92CDB7DEB76C01E62E08E02C
:101DB00010E0FF24F39461E09F2D9E2109F460E080
:101DC000C60149830E946C0EFF0C01501109498124
:101DD0000115110581F7411115C0F894D60111962E
:101DE000ED91FC91129791818C918095892381834B
:101DF0001196ED91FC91129792818C918095892397
:101E0000828378940F90DF91CF911F910F91FF9073
:101E1000EF90DF90CF900895EF92FF920F931F9372
:101E2000CF93DF938C01C8E0D0E0F12CEE24E39453
:101E3000C8010E949F0E8111FE28EE0C2197C1F768
:101E40008F2DDF91CF911F910F91FF90EF9008950B
:101E5000CF92DF92FF920F931F93CF93DF931F9246
:101E6000CDB7DEB78C01F62E40E065E579830E94A0
:101E7000CA0ECF2C7981D72E88E0F82EF601619119
:101E80006F0140E0C8010E94CA0EFA94B9F70F90A2
:101E9000DF91CF911F910F91FF90DF90CF90089528
:101EA00040E06CEC0C94CA0EFC0113861586148677
:101EB00027E030E0DF01A20FB31F13961C9221151B
:101EC000310519F021503109F5CF08951F93CF93B3
:101ED000DF93EC01162F60E0812F0E940815612F1F
:101EE00070E0FB01E25CFC4FE491E883FB01EC57FE
:101EF000FC4FE491F0E0EE0FFF1FE653FC4F85919D
:101F000094919A838983CE01DF91CF911F910C9494
:101F1000540FAF92BF92CF92DF92EF92FF920F9346
:101F20001F93CF93DF931F92CDB7DEB75C01E62EF0
:101F3000D72EFC01858581115DC0C5010E942D0E43
:101F4000811105C0F5011386158614866EC040E028
:101F500060EFC5010E94CA0E01E0F12CC12C11E016
:101F6000C5010E949F0E682FC50169830E949F0EC4
:101F70006981613019F48130B9F433C02F2D30E01C
:101F800068131BC0F5018385181730F4E20FF31FA7
:101F90008381802349F402C0181731F060E01930C2
:101FA00058F4F501148708C0F501EF0DF11D838188
:101FB000802B838361E009C0C12EF501E20FF31F7E
:101FC0008381902F909589238383C5010E946C0E95
:101FD0001F5F000F11F4F39401E0F7E0FF1508F024
:101FE000BFCF113438F0F501C386C11018C081E0AD
:101FF000858715C0F50113861586148680E0EE2DC1
:10200000FD2D20E030E0D501A20FB31F13969C9167
:1020100091932F5F3F4F28303105A9F706C0F50196
:102020008381882339F381E0EACF0F90DF91CF914C
:102030001F910F91FF90EF90DF90CF90BF90AF90E6
:102040000895DC0180E0615038F0ED91E827F0E080
:10205000E850FE4F8491F7CF08952091B704309156
:10206000B80428173907B9F4909175048091760463
:10207000981789F0E0917504F0E0E958FB4F8081F2
:102080002091750430E02F5F3F4F2F73332720934B
:10209000750490E008958FEF9FEF08951F93CF93FD
:1020A000DF93DC015C968D919C915D97009749F4DC
:1020B00081E090E013969C938E93129780E090E0DD
:1020C0003BC05196ED91FC91529750962C915097B0
:1020D000322F30951FB75E964C915E9741FB772764
:1020E00070F941FD6095F8944081772311F0422BFF
:1020F00001C043234083EC012197F1F748E0508170
:1021000060FF02C0522B01C053235083EC01219782
:10211000F1F76695415099F78081772311F0832379
:1021200001C0822B80831FBF5C968D919C915D972F
:102130000197F1F781E090E0DF91CF911F91089531
:102140002091B7043091B8042817390781F4909191
:10215000750480917604981751F0E0917504F0E0D1
:10216000E958FB4F8081992787FD909508958FEF5F
:102170009FEF08952091B7043091B80428173907CC
:1021800071F4809176042091750490E0805C9F4FFB
:10219000821B910960E470E00E948A1A089580E031
:1021A00090E008952091B7043091B80428173907BA
:1021B00039F48FB7F89410927604109275048FBF9B
:1021C0000895E091B704F091B804E817F90769F4AD
:1021D000A389B4899C918589809589238C931092D9
:1021E000B8041092B70481E0089580E00895CF9379
:1021F000DF93EC018A8D9B8D892BF1F08091B704E0
:102200009091B8048C179D07B9F0009711F00E94C7
:10221000E1108E8D8E7F8E8F109276041092750451
:10222000D093B804C093B704EB89FC8980819D8961
:10223000892B808381E001C080E0DF91CF910895F8
:102240001F920F920FB60F9211240BB60F922F937D
:102250003F934F935F936F937F938F939F93AF932E
:10226000BF93EF93FF93E091B704F091B8043097D8
:1022700009F451C0868DA685B785958581FF04C078
:102280008C91892329F447C08C91892309F043C09C
:10229000A389B4899C918589809589238C938689AB
:1022A00097890197F1F7208D318DA685B7857585C2
:1022B00058E040E0C9010197F1F7842F90E095952F
:1022C0008795482F6C91672309F04068515091F72A
:1022D000868D81FD40958091760490E001968F7304
:1022E000992720917504281749F0A0917604B0E051
:1022F000A958BB4F4C938093760403C0868D8160B0
:10230000868F828D938D0197F1F7A389B4898C9183
:102310009589892B8C93FF91EF91BF91AF919F91FC
:102320008F917F916F915F914F913F912F910F907E
:102330000BBE0F900FBE0F901F9018952BE133E04E
:10234000FC01318320830C94E1101F93CF93DF9322
:10235000EC01162F6E8D6695617081E06827812FE4
:102360000E94411561E0812F0E940815812F90E0A5
:10237000FC01E25CFC4FE491E88BFC01EC57FC4F64
:10238000E491F0E0EE0FFF1FEC51FC4F859194912A
:102390009A8B898BDF91CF911F9108951F93CF93D3
:1023A000DF93EC01162F60E0812F0E9408158E8DBF
:1023B00081FD04C061E0812F0E9441151C87812F9F
:1023C00090E0FC01E25CFC4FE491ED87FC01EC57EE
:1023D000FC4FE491F0E0EE0FFF1FE653FC4F8591B8
:1023E00094919F878E87DF91CF911F910895FF92DF
:1023F0000F931F93CF93DF93EC01F62E522F1B8286
:102400001A8208EE13E020E030E00C831D832E8357
:102410003F838BE193E0998388831F8A1E8A198EFC
:10242000188E1B8E1A8E1D8E1C8E8E8D8E7F50FBED
:1024300081F98E8F642FCE010E94A5116F2DCE01E0
:10244000DF91CF911F910F91FF900C94CE110F93BC
:102450001F93CF93DF93EC019A01AB011B8E1A8E71
:10246000198E188E1F8A1E8A60E079E08DE390E055
:102470000E94C01AC9012430310520F0B90163500F
:10248000710902C061E070E07D8F6C8F1C8506EFE2
:10249000010F043048F06EEC610F643028F062ECFC
:1024A000610F683008F07DC0B90176956795643199
:1024B000710518F06351710902C061E070E07F8B13
:1024C0006E8B069718F0C901059702C081E090E075
:1024D000998F888FC901880F991F820F931F969536
:1024E0008795969587958D30910510F00C9702C0D1
:1024F00081E090E09B8F8A8F043060F08EEC810F3A
:10250000843040F082EC810F883008F051C0A8E69A
:10251000B0E050C0A8E6B0E0E8E6F0E0908104301A
:1025200028F01E53183010F484E001C081E0892B9C
:102530008C932C8536EF320F343058F08EEC820FAE
:10254000843038F082EC820F883030F48DE690E0F1
:1025500005C08BE690E002C080E090E09C8B8B8B06
:10256000343010F426500BC0223379F0233379F045
:10257000243379F082EC820F883068F4282F81E0D0
:1025800001C0880F2A95EAF707C088E005C084E0FB
:1025900003C082E001C081E08D8B8C8D9D8D019701
:1025A000F1F7CE01DF91CF911F910F910C94F710AD
:1025B000A0E0B0E0883008F4AFCFE0E0F0E0AECFCC
:1025C0001F920F920FB60F9211242F933F938F9368
:1025D0009F93AF93BF938091BA049091BB04A09155
:1025E000BC04B091BD043091B90423E0230F2D3712
:1025F00020F40196A11DB11D05C026E8230F029607
:10260000A11DB11D2093B9048093BA049093BB041B
:10261000A093BC04B093BD048091BE049091BF040C
:10262000A091C004B091C1040196A11DB11D809379
:10263000BE049093BF04A093C004B093C104BF91A3
:10264000AF919F918F913F912F910F900FBE0F905F
:102650001F9018952FB7F8946091BA047091BB043D
:102660008091BC049091BD042FBF08953FB7F894AA
:102670008091BE049091BF04A091C004B091C104A8
:1026800026B5A89B05C02F3F19F00196A11DB11DCD
:102690003FBF6627782F892F9A2F620F711D811DEA
:1026A000911D42E0660F771F881F991F4A95D1F749
:1026B0000895CF92DF92EF92FF92CF93DF936B0159
:1026C0007C010E943613EB01C114D104E104F10432
:1026D00089F00E949A180E9436136C1B7D0B683E8D
:1026E000734090F381E0C81AD108E108F108C8519D
:1026F000DC4FEACFDF91CF91FF90EF90DF90CF904A
:1027000008958230910538F0880F991F880F991F1E
:1027100005970197F1F70895789484B5826084BD98
:1027200084B5816084BD85B5826085BD85B58160D5
:1027300085BDEEE6F0E0808181608083E1E8F0E035
:102740001082808182608083808181608083E0E864
:10275000F0E0808181608083E1EBF0E08081846043
:102760008083E0EBF0E0808181608083E1E9F0E04C
:10277000808182608083808181608083E0E9F0E0F5
:10278000808181608083E1EAF0E0808182608083E3
:10279000808181608083E0EAF0E0808181608083D5
:1027A000E1E2F1E0808182608083808181608083CA
:1027B000E0E2F1E0808181608083EAE7F0E08081FF
:1027C0008460808380818260808380818160808357
:1027D0008081806880831092C10008951F93CF93F9
:1027E000DF93182FEB0161E00E940815209711F488
:1027F00060E004C0CF3FD10539F461E0812FDF9163
:10280000CF911F910C944115E12FF0E0E850FD4F5E
:10281000449150E0FA013197E231F10508F09BC094
:10282000EE58FF4F0C94DF1A84B5806884BDC7BD95
:1028300097C084B5806284BDC8BD92C0809180007D
:10284000806880938000D0938900C093880088C0FE
:1028500080918000806280938000D0938B00C09331
:102860008A007EC080918000886080938000D09331
:102870008D00C0938C0074C08091B00080688093FC
:10288000B000C093B3006CC08091B00080628093B0
:10289000B000C093B40064C08091900080688093C1
:1028A0009000D0939900C09398005AC080919000F6
:1028B000806280939000D0939B00C0939A0050C098
:1028C00080919000886080939000D0939D00C09389
:1028D0009C0046C08091A00080688093A0008091F9
:1028E000A0008F7B8093A000D093A900C093A80084
:1028F00037C08091A00080628093A000D093AB008D
:10290000C093AA002DC08091A00088608093A00091
:10291000D093AD00C093AC0023C0809120018068AB
:1029200080932001D0932901C093280119C0809180
:102930002001806280932001D0932B01C0932A0153
:102940000FC080912001886080932001D0932D01D9
:10295000C0932C0105C0C038D1050CF04ECF48CF34
:10296000DF91CF911F91089590E0FC013197E23102
:10297000F10508F04CC0EC57FF4F0C94DF1A809122
:1029800080008F7703C0809180008F7D80938000CE
:10299000089580918000877FF9CF84B58F7702C03A
:1029A00084B58F7D84BD08958091B0008F7703C07A
:1029B0008091B0008F7D8093B00008958091900049
:1029C0008F7707C0809190008F7D03C08091900029
:1029D000877F8093900008958091A0008F7707C033
:1029E0008091A0008F7D03C08091A000877F80939D
:1029F000A0000895809120018F7707C08091200169
:102A00008F7D03C080912001877F809320010895EE
:102A1000CF93DF9390E0FC01E25CFC4F2491FC013A
:102A2000EC57FC4F8491882349F190E0880F991F5F
:102A3000FC01E250FC4FA591B4918C519C4FFC01DC
:102A4000C591D4919FB7611108C0F8948C912095DD
:102A500082238C93888182230AC0623051F4F894D7
:102A60008C91322F309583238C938881822B88839D
:102A700004C0F8948C91822B8C939FBFDF91CF91EF
:102A800008950F931F93CF93DF931F92CDB7DEB7B7
:102A9000282F30E0F901E850FD4F8491F901E25C04
:102AA000FC4F1491F901EC57FC4F04910023C9F03D
:102AB000882321F069830E94B4146981E02FF0E03B
:102AC000EE0FFF1FEC51FC4FA591B4919FB7F89406
:102AD0008C91611103C01095812301C0812B8C93CF
:102AE0009FBF0F90DF91CF911F910F910895FC012F
:102AF000818D228D90E0805C9F4F821B91098F73A6
:102B000099270895FC01918D828D981731F0828D5F
:102B1000E80FF11D858D90E008958FEF9FEF0895E8
:102B2000FC01918D828D981761F0828DDF01A80FD5
:102B3000B11D5D968C91928D9F5F9F73928F90E0F7
:102B400008958FEF9FEF08958BE497E1892B41F073
:102B500080E090E0892B21F00E944B17811125C065
:102B600080E090E0892B41F080E090E0892B21F01B
:102B70000E94000081111CC080E090E0892B41F090
:102B800080E090E0892B21F00E940000811113C0A9
:102B900080E090E0892BA1F080E090E0892B81F02B
:102BA0000E94000081110AC008950E940000D8CF41
:102BB0000E940000E1CF0E940000EACF0C940000C8
:102BC0000895FC01848DDF01A80FB11DA35ABF4FEA
:102BD0002C91848D90E001968F739927848FA6891C
:102BE000B7892C93A089B1898C9180648C93938D43
:102BF000848D981306C00288F389E02D80818F7D33
:102C000080830895CF93DF93EC01888D8823C9F0EA
:102C1000EA89FB89808185FD05C0A889B9898C91E5
:102C200086FD0FC00FB607FCF5CF808185FFF2CF80
:102C3000A889B9898C9185FFEDCFCE010E94E1155D
:102C4000E7CFDF91CF910895CF92DF92FF920F935C
:102C50001F93CF93DF931F92CDB7DEB76C0181E056
:102C6000D60158968C9358975B969C915B975C968F
:102C70008C915C97981307C05096ED91FC915197F9
:102C8000808185FD2EC0F601038D10E00F5F1F4F80
:102C90000F731127F02EF601848DF81211C00FB6B4
:102CA00007FCF9CFD6015096ED91FC9151978081A8
:102CB00085FFF1CFC60169830E94E1156981EBCFE1
:102CC000838DE80FF11DE35AFF4F6083D6015B96B9
:102CD0000C935B975296ED91FC91539780818062A3
:102CE0000CC0D6015696ED91FC9157976083509693
:102CF000ED91FC91519780818064808381E090E028
:102D00000F90DF91CF911F910F91FF90DF90CF90A7
:102D10000895BF92CF92DF92EF92FF92CF93DF930D
:102D2000EC016A017B01B22EE889F98982E0808397
:102D3000411581EE580761057105A1F060E079E069
:102D40008DE390E0A70196010E949E1A215031095F
:102D5000410951095695479537952795211580E1E9
:102D6000380798F0E889F989108260E874E88EE104
:102D700090E0A70196010E949E1A21503109410955
:102D800051095695479537952795EC85FD853083F4
:102D9000EE85FF852083188EEC89FD89B082EA8953
:102DA000FB89808180618083EA89FB8980818860DA
:102DB0008083EA89FB89808180688083EA89FB8936
:102DC00080818F7D8083DF91CF91FF90EF90DF90A6
:102DD000CF90BF9008951F920F920FB60F921124BB
:102DE0000BB60F922F938F939F93EF93FF93E091E6
:102DF000D204F091D3048081E091D804F091D904F9
:102E000082FD12C090818091DB048F5F8F732091CF
:102E1000DC04821751F0E091DB04F0E0EE53FB4F4D
:102E2000958F8093DB0401C08081FF91EF919F918A
:102E30008F912F910F900BBE0F900FBE0F901F9090
:102E400018951F920F920FB60F9211240BB60F9286
:102E50002F933F934F935F936F937F938F939F93A2
:102E6000AF93BF93EF93FF9382EC94E00E94E11540
:102E7000FF91EF91BF91AF919F918F917F916F9152
:102E80005F914F913F912F910F900BBE0F900FBE0E
:102E90000F901F90189582EC94E00E94771521E026
:102EA000892B09F420E0822F08951092C504109216
:102EB000C40488EE93E0A0E0B0E08093C604909351
:102EC000C704A093C804B093C9048BE293E0909325
:102ED000C3048093C20485EC90E09093CF04809368
:102EE000CE0484EC90E09093D1048093D00480ECE5
:102EF00090E09093D3048093D20481EC90E090937F
:102F0000D5048093D40482EC90E09093D70480930E
:102F1000D60486EC90E09093D9048093D804109264
:102F2000DB041092DC041092DD041092DE0408959C
:102F300008950E948C130E9498170E94EC07C4EA1F
:102F4000D5E10E9488082097E1F30E94A415F9CFEB
:102F5000CF92DF92EF92FF920F931F93CF93DF9365
:102F60006C017A01EB01E60EF71E00E010E0CE15D1
:102F7000DF0561F06991D601ED91FC910190F0813E
:102F8000E02DC6011995080F191FF1CFC801DF9177
:102F9000CF911F910F91FF90EF90DF90CF90089508
:102FA0006115710581F0DB010D900020E9F7AD019D
:102FB00041505109461B570BDC01ED91FC910280F9
:102FC000F381E02D199480E090E008950C94D017DF
:102FD000DC01ED91FC910190F081E02D19948F922C
:102FE0009F92AF92BF92CF92DF92EF92FF920F9398
:102FF0001F93CF93DF93CDB7DEB7A1970FB6F894A9
:10300000DEBF0FBECDBF7C01C42EE52FCB01D22E7B
:1030100019A221E02D1510F02AE0D22E8E010F5DAD
:103020001F4F8D2C912CA12CB12C6C2D7E2FA50126
:1030300094010E949E1A8C2DD29E80191124015059
:1030400011098A3014F4805D01C0895CF801808325
:10305000211531054105510521F0C22EE32FCA018A
:10306000E4CFB801C7010E94D017A1960FB6F8941B
:10307000DEBF0FBECDBFDF91CF911F910F91FF90AB
:10308000EF90DF90CF90BF90AF909F908F9008957A
:10309000CF92DF92EF92FF920F931F93CF93DF9324
:1030A000EC016A017B012115310579F4E881F98190
:1030B0000190F081E02D642FDF91CF911F910F914E
:1030C000FF90EF90DF90CF9019942A303105E9F40A
:1030D00077FF1AC06DE20E94E8178C01442755273C
:1030E000BA014C195D096E097F092AE0CE010E94E0
:1030F000EF17800F911FDF91CF911F910F91FF90DC
:10310000EF90DF90CF9008952AE0B701A601CE019D
:10311000DF91CF911F910F91FF90EF90DF90CF90B3
:103120000C94EF179A01AB01662757FD6095762F37
:103130000C94481808955058BB27AA270ED04DC1AB
:103140003ED130F043D120F031F49F3F11F41EF412
:1031500033C10EF4E095E7FB29C1E92F4FD180F38D
:10316000BA17620773078407950718F071F49EF584
:1031700067C10EF4E0950B2EBA2FA02D0B01B901FB
:1031800090010C01CA01A0011124FF27591B99F0DD
:10319000593F50F4503E68F11A16F040A22F232FE9
:1031A000342F4427585FF3CF469537952795A79539
:1031B000F0405395C9F77EF41F16BA0B620B730BE0
:1031C000840BBAF09150A1F0FF0FBB1F661F771F51
:1031D000881FC2F70EC0BA0F621F731F841F48F406
:1031E000879577956795B795F7959E3F08F0B3CF8C
:1031F0009395880F08F09927EE0F97958795089576
:103200000CD0EBC0E3D040F0DAD030F021F45F3FD7
:1032100019F0CCC0511115C1CFC0F0D098F399234B
:10322000C9F35523B1F3951B550BBB27AA2762178A
:103230007307840738F09F5F5F4F220F331F441FCF
:10324000AA1FA9F333D00E2E3AF0E0E830D0915007
:103250005040E695001CCAF729D0FE2F27D0660FF4
:10326000771F881FBB1F261737074807AB07B0E833
:1032700009F0BB0B802DBF01FF2793585F4F2AF049
:103280009E3F510568F092C0DCC05F3FECF3983E72
:10329000DCF3869577956795B795F7959F5FC9F7A6
:1032A000880F911D9695879597F90895E1E0660F2F
:1032B000771F881FBB1F621773078407BA0720F0A8
:1032C000621B730B840BBA0BEE1F88F7E095089511
:1032D00004D06894B111B5C0089598D088F09F5774
:1032E00090F0B92F9927B751A0F0D1F0660F771F52
:1032F000881F991F1AF0BA95C9F712C0B13081F032
:103300009FD0B1E008959CC0672F782F8827B85FC1
:1033100039F0B93FCCF3869577956795B395D9F792
:103320003EF490958095709561957F4F8F4F9F4F9C
:103330000895E89409C097FB3EF4909580957095A8
:1033400061957F4F8F4F9F4F9923A9F0F92F96E9F1
:10335000BB279395F695879577956795B795F11166
:10336000F8CFFAF4BB0F11F460FF1BC06F5F7F4F03
:103370008F4F9F4F16C0882311F096E911C0772315
:1033800021F09EE8872F762F05C0662371F096E81E
:10339000862F70E060E02AF09A95660F771F881FED
:1033A000DAF7880F9695879597F9089597F99F67AB
:1033B00080E870E060E008959FEF80EC08950024BD
:1033C0000A941616170618060906089500240A948A
:1033D00012161306140605060895092E0394000C10
:1033E00011F4882352F0BB0F40F4BF2B11F460FF9F
:1033F00004C06F5F7F4F8F4F9F4F089557FD9058C8
:10340000440F551F59F05F3F71F04795880F97FBA8
:10341000991F61F09F3F79F0879508951216130662
:103420001406551FF2CF4695F1DF08C01616170691
:103430001806991FF1CF86957105610508940895C6
:10344000E894BB2766277727CB0197F908950BD01F
:10345000C4CFB5DF28F0BADF18F0952309F0A6CF66
:10346000ABCF1124EECFCADFA0F3959FD1F3950F18
:1034700050E0551F629FF001729FBB27F00DB11DF8
:10348000639FAA27F00DB11DAA1F649F6627B00D88
:10349000A11D661F829F2227B00DA11D621F739F71
:1034A000B00DA11D621F839FA00D611D221F749F7F
:1034B0003327A00D611D231F849F600D211D822FC6
:1034C000762F6A2F11249F5750408AF0E1F088230D
:1034D0004AF0EE0FFF1FBB1F661F771F881F91501A
:1034E0005040A9F79E3F510570F060CFAACF5F3FD3
:1034F000ECF3983EDCF3869577956795B795F7954D
:10350000E7959F5FC1F7FE2B880F911D96958795D4
:1035100097F9089597FB072E16F4009407D077FDCE
:1035200009D00E94E91A07FC05D03EF490958195D8
:103530009F4F0895709561957F4F0895A1E21A2ECF
:10354000AA1BBB1BFD010DC0AA1FBB1FEE1FFF1F47
:10355000A217B307E407F50720F0A21BB30BE40B97
:10356000F50B661F771F881F991F1A9469F76095DE
:103570007095809590959B01AC01BD01CF01089598
:10358000052E97FB1EF400940E94D71A57FD07D012
:103590000E949E1A07FC03D04EF40C94D71A509543
:1035A0004095309521953F4F4F4F5F4F089590952F
:1035B0008095709561957F4F8F4F9F4F0895EE0FC7
:1035C000FF1F0590F491E02D19940790F691E02DDE
:1035D0001994AA1BBB1B51E107C0AA1FBB1FA6174A
:1035E000B70710F0A61BB70B881F991F5A95A9F7AC
:1035F00080959095BC01CD010895CF93DF938230E3
:10360000910510F482E090E0E0916105F09162058F
:1036100020E030E0A0E0B0E0309739F14081518106
:1036200048175907B8F04817590771F482819381F8
:10363000109729F013969C938E9312972CC0909319
:1036400062058093610527C02115310531F04217CD
:10365000530718F0A901DB0101C0EF019A01BD0178
:10366000DF010280F381E02DD7CF21153105F9F07C
:10367000281B390B2430310580F48A819B81611528
:10368000710521F0FB019383828304C0909362054E
:1036900080936105FE01329644C0FE01E20FF31FE4
:1036A0008193919322503109398328833AC0209124
:1036B0005F0530916005232B41F420910202309187
:1036C00003023093600520935F0520910002309142
:1036D00001022115310541F42DB73EB74091040296
:1036E00050910502241B350BE0915F05F0916005B8
:1036F000E217F307A0F42E1B3F0B2817390778F0C9
:10370000AC014E5F5F4F2417350748F04E0F5F1F27
:103710005093600540935F058193919302C0E0E070
:10372000F0E0CF01DF91CF910895CF93DF93009721
:1037300009F487C0FC01329713821282C09161059F
:10374000D0916205209781F420813181280F391FA3
:1037500080915F05909160058217930779F5F0934A
:103760006005E0935F056DC0DE0120E030E0AE173C
:10377000BF0750F412964D915C9113979D0141152E
:10378000510509F1DA01F3CFB383A283408151815E
:10379000840F951F8A179B0771F48D919C91119747
:1037A000840F951F02969183808312968D919C9130
:1037B0001397938382832115310529F4F0936205D1
:1037C000E09361053EC0D9011396FC93EE931297E6
:1037D0004D915D91A40FB51FEA17FB0779F4808125
:1037E0009181840F951F0296D90111969C938E9317
:1037F0008281938113969C938E931297E0E0F0E080
:103800008A819B81009719F0FE01EC01F9CFCE016E
:10381000029628813981820F931F20915F05309194
:1038200060052817390769F4309729F4109262056A
:103830001092610502C013821282D0936005C0937A
:103840005F05DF91CF910895FB01DC0102C001907B
:103850000D9241505040D8F70895F999FECF92BD8E
:1038600081BDF89A992780B50895262FF999FECF42
:103870001FBA92BD81BD20BD0FB6F894FA9AF99A8D
:103880000FBE0196089514E0CCE1D4E000E006C03C
:1038900022970109FE010BBF0E94E51ACE31D10724
:0A38A00080E00807A9F7F894FFCFB5
:1038AA00000063058000D2040164004B0004000399
:1038BA00000200AF00640064005752462000313213
:1038CA003300495041004F50572000444154414C65
:1038DA004F47002E4353560044415441204C4F4712
:1038EA00204352454154454400434C46200044413C
:1038FA005441204C4F4720434C4F534544004255B6
:10390A0054544F4E530046414E20504F5745520093
:10391A0047554920434F4C4F52004200504155539E
:10392A00450053455455502044415441204C4F477B
:10393A0000534156452044415441204C4F470053BF
:10394A0054415455533A204E4F54205345545550E0
:10395A00004155544F004752415048530054656D39
:10396A00706572617475726520310056414C554517
:10397A000054656D70657261747572652032005409
:10398A00656D706572617475726520330054656D7A
:10399A00706572617475726520340054656D706566
:1039AA0072617475726520350054656D7065726157
:1039BA0074757265203600000000004E10A817BA10
:1039CA00102D10A010D210000000002416A817779E
:0839DA0015901582150216007C
:00000001FF
